:020000040800F2
:10000000100400209D010008A5010008A7010008B8
:10001000A9010008AB010008AD01000800000000C4
:10002000000000000000000000000000AF01000818
:10003000B101000800000000B3010008F10C000845
:10004000B7010008B7010008B7010008B7010008B0
:10005000B7010008B7010008B7010008B7010008A0
:10006000B7010008B7010008B7010008B701000890
:10007000B7010008B7010008B7010008B701000880
:10008000B7010008B7010008B7010008B701000870
:10009000B7010008B7010008B7010008B701000860
:1000A000B7010008B7010008B7010008B701000850
:1000B000B7010008B7010008B7010008B701000840
:1000C000B7010008B7010008B7010008B701000830
:1000D000B7010008B7010008B7010008B701000820
:1000E000B7010008B7010008B7010008B701000810
:1000F000B7010008B7010008B7010008B701000800
:10010000B7010008B7010008B7010008B7010008EF
:10011000B7010008B7010008B7010008B7010008DF
:10012000B7010008B7010008B7010008B7010008CF
:10013000B7010008B7010008B7010008B7010008BF
:10014000B7010008B7010008B7010008B7010008AF
:10015000B7010008B7010008B7010008B70100089F
:10016000B7010008B7010008B7010008B70100088F
:10017000B7010008B7010008B7010008000000003F
:10018000B7010008B7010008DFF80CD000F08CF8C8
:1001900000480047150E000810040020064880475C
:1001A00006480047FEE7FEE7FEE7FEE7FEE7FEE75C
:1001B000FEE7FEE7FEE7FEE7790D0008890100088B
:1001C0002DE9F05F0546002092469B46884606468C
:1001D000814640241BE0284641464746224600F01F
:1001E00053F853465A46C01A914110D31146184647
:1001F000224600F03AF82D1A67EB01084F462246D6
:100200000120002100F031F817EB00094E41201EBB
:10021000A4F10104DFDC484631462A464346BDE8E6
:10022000F09F40EA01039B0703D009E008C9121FB1
:1002300008C0042AFAD203E011F8013B00F8013BA0
:10024000521EF9D27047D2B201E000F8012B491ECC
:10025000FBD270470022F6E710B513460A46044663
:100260001946FFF7F0FF204610BD202A04DB203A94
:1002700000FA02F1002070479140C2F1200320FAF9
:1002800003F3194390407047202A04DB203A21FAF7
:1002900002F00021704721FA02F3D040C2F120029F
:1002A0009140084319467047064C074D06E0E06848
:1002B00040F0010394E8070098471034AC42F6D3AD
:1002C000FFF766FFA40F0008C40F000810B504462E
:1002D0000146064800F048FE28B92146044800F0CF
:1002E00043FE002800D0012010BD0000008000085F
:1002F00000C000084068012801D002487047024849
:100300007047000000000208000004080E4910B504
:100310000C48086000200860091D0C4A0A6008604B
:1003200009490B4A10390A600860C122091D0A6098
:1003300008600122091D0A60086000F06BF90020C6
:1003400010BD0000FFC9FEF6203802403379770463
:10035000FF11602270B5044600F014F90546601CD8
:1003600002D004480078044400F00CF9401BA0427D
:10037000FAD370BD000000202DE9F84FDFF8BCA1D2
:100380000022012503264FF00F090AF1040BAAF100
:10039000040E00BF0B6805FA02F42340A34270D19B
:1003A0000F7907F00307012F01D0022F16D18768BC
:1003B0004FEA420806FA08FC27EA0C07D1F80CC0FD
:1003C0000CFA08FC4CEA070CC0F808C04768A743C1
:1003D0000C79C4F3001494403C4344600C79E4432A
:1003E000A4070AD0C4684FEA420C06FA0CF7BC43D3
:1003F0008F6807FA0CF72743C7600C7904F00304F1
:10040000022C12D1D40800EB840CDCF820405707F2
:10041000FF0E09FA07F824EA0804D1F8108008FA58
:1004200007F848EA0408CCF8208004684FEA420C38
:1004300006FA0CF7BC430F7907F0030707FA0CF72D
:10044000274307604C6814F4403F70D03C4C276849
:1004500047F480472760246822F0030704F48044AF
:100460000094384C07EB040CDCF8084897074FEA77
:10047000177809FA08F7BC43334FB84202D1002776
:1004800024E054E0314FB84201D101271EE0304F43
:10049000B84201D1022719E02E4FB84201D10327FB
:1004A00014E02D4FB84201D104270FE02B4FB84282
:1004B00001D105270AE02A4FB84201D1062705E0FD
:1004C000284FB84201D1072700E0082707FA08F7AC
:1004D0002743CCF80878DAF800405746D1F804C032
:1004E0009C435FEACC2C00D51C433C60DBF8004009
:1004F0005F46D1F804C09C435FEA8C2C00D51C43B6
:100500003C60DEF800407746D1F804C09C435FEAC7
:100510008C3C00D51C433C60084F083F3C68D1F838
:1005200004C09C435FEACC3C00D51C433C60521C99
:10053000102AFFF42FAFBDE8F88F0000083C0140FF
:1005400044380240003001400000024000040240F4
:1005500000080240000C024000100240001402405B
:1005600000180240001C0240426921EA02030A40CE
:1005700043EA0241816170470AB181617047090411
:10058000FBE7000001488068704700000000002081
:1005900002488168027811448160704700000020A1
:1005A0000B4810B5016841F400710160016841F425
:1005B00080610160016841F480710160032000F0F6
:1005C0004BF80F2000F006F800F025F8002010BDD1
:1005D000003C024070B50D4D04464FF47A71287806
:1005E000B1FBF0F00A490968B1FBF0F000F06CFBD8
:1005F00048B9102C07D200222146501E00F00CF8FA
:1006000000206C6070BD012070BD00000000002063
:100610000C00002070477047F0B40E4B1B680C466E
:10062000C3F30223C3F10705042D00D90425191DC6
:10063000072901D2002300E0DB1E012606FA05F19E
:10064000491E214099409E40761E16403143F0BC21
:1006500000F0A0BB0CED00E0064900F007020868BE
:100660004FF6FF03184040EA0220034A1043086097
:10067000704700000CED00E00000FA05034908B5E2
:100680000120086202480068009008BD00000E4288
:10069000007000402DE9F0470E46050065D0DFF8F8
:1006A0001481D8F80000F7B200F00700B04207D27A
:1006B00088F80070D8F8000000F00700B04254D16C
:1006C00028683D4C810712D5400703D5206840F4C7
:1006D000E05020602878000703D5206840F460408F
:1006E00020602068A96820F0F00008432060287886
:1006F000C0072DD0304968680839012812D0022877
:1007000013D0032811D00968890700292DDA216840
:1007100021F0030101432160FFF734FF814641F2DC
:10072000883A0EE009688903EFE709688901ECE778
:10073000FFF728FFA0EB0901514502D90320BDE8CE
:10074000F0872068696800F00C00B0EB810FEFD1F2
:10075000D8F80010404601F00701B14207D90770F0
:10076000006800F00700B04201D00120E7E72878D8
:10077000400705D52068E96820F4E0500843206070
:100780002878000706D52068296920F4604040EAEF
:10079000C100206000F0B2F82168084AC1F30311DB
:1007A000515CC8400649086006480068FFF712FF20
:1007B0000020C4E7003C024008380240940F0008C3
:1007C0000C000020040000202DE9F041FFF7DAFEC4
:1007D000444C0546206840F00100206005E000BF61
:1007E000FFF7D0FE401B022847D820688007F7D5C6
:1007F000206840F080002060FFF7C4FE0546394EB7
:1008000000200836306041F2883704E0FFF7BAFE76
:10081000401BB84231D8306810F00C0FF6D1FFF70A
:10082000B1FE0546206820F45020206005E000BF9E
:10083000FFF7A8FE401B64281FD820688003F7D468
:10084000FFF7A0FE0546206820F08070206004E0DD
:10085000FFF798FE401B02280FD820688001F7D4CC
:10086000FFF790FE0546206820F08060206007E0DA
:10087000FFF788FE401B022802D90320BDE8F08163
:1008800020680001F4D417491748091D086015496C
:1008900016488431086013480C30016821F4F8517F
:1008A0000160016821F400510160016841F41F01F9
:1008B0000160016841F4001101600A487430016868
:1008C00021F001010160016841F080710160094976
:1008D0000748086008480068FFF77CFE0028CDD074
:1008E0000120CBE700380240103000040030002027
:1008F0000024F4000C00002004000020154810B56E
:10090000006810F00C02144813D04110042A0FD0D4
:10091000082A0ED10F4C241F2268236802F03F02E0
:100920005B0207D52068C0F38810A0FB010106E038
:10093000084610BD2168C1F38811A1FB0001002306
:10094000FFF73EFC2168C1F30141491C4900B0FB9F
:10095000F1F010BD083802400024F4002DE9F84FF2
:1009600004006ED02078DFF84C93C007A9F104058D
:100970004AD009F104000168C1F38101012908D0BE
:100980000068C0F3810002280AD1D9F800004002B3
:1009900006D52868800337D560680028E1D033E0A9
:1009A0006068B0F5803F10D0B0F5A02F286810D057
:1009B00020F480302860286820F480202860606857
:1009C000A8B1FFF7DFFD06460DE0286840F480304F
:1009D000F4E740F480202860F7E700BFFFF7D2FD7E
:1009E000801B642873D828688003F7D50CE0FFF7D4
:1009F000C9FD064605E000BFFFF7C4FD801B642863
:100A0000F0D828688003F7D42078DFF8AC8280071C
:100A10004FF0000A3ED5A748001D016811F00C0FE9
:100A200008D00068C0F3810002280BD1D9F800007B
:100A3000400207D42868800716D5E068012800D155
:100A400012E033E1E068B8B10120C8F80000FFF718
:100A500099FD064605E000BFFFF794FD801B0228C4
:100A6000C0D828688007F7D52868216920F0F800E9
:100A700040EAC10028600DE0C8F800A0FFF782FD41
:100A8000064604E0FFF77EFD801B02281FD8286879
:100A90008007F7D42078000722D5864F8748616900
:100AA000703771B101210160FFF76CFD064604E06B
:100AB000FFF768FD801B022809D838688007F7D542
:100AC0000EE0C0F800A0FFF75DFD064605E082E0FD
:100AD000FFF758FD801B02287DD838688007F7D4BF
:100AE0002078400768D5DFF8CCB100270BF13C0B2C
:100AF000DBF80000C0000BD4DBF8001041F080519F
:100B0000CBF80010DBF80000012700F080500090C7
:100B10006B4E3068C00510D4306840F4807030608F
:100B2000FFF730FD009005E0FFF72CFD0099401A1B
:100B3000022850D83068C005F6D55E4EA0686C36E5
:100B400001280FD00528306810D020F00100306057
:100B5000306820F004003060A068B8B1FFF712FDE3
:100B600000900FE0306840F00100F4E740F004002E
:100B70003060F7E7FFF706FD0099411A41F288302F
:100B8000814266D830688007F4D50EE0FFF7FAFCA2
:100B9000009007E0FFF7F6FC0099411A41F2883017
:100BA000814256D830688007F4D42FB1DBF80010AA
:100BB00021F08051CBF80010A069C8B33D49091D50
:100BC0000968C1F3810102294AD00228504607D0A2
:100BD000C8F8600000E03CE0FFF7D4FC04463BE0CE
:100BE0004746C8F86000FFF7CDFC064605E000BFA9
:100BF000FFF7C8FC801B02282BD828688001F7D497
:100C0000D4E907010843A16A2E4A490802EB0141D1
:100C1000626A41EA8211084394F82C1040EA0161AB
:100C2000C9F8001001203866FFF7ACFC044606E066
:100C30003EE000BFFFF7A6FC001B022809D8286889
:100C40008001F7D534E000BFFFF79CFC001B0228B1
:100C500002D90320BDE8F88F28688001F4D427E08A
:100C60000128F7D0D9F80000E26900F48001914230
:100C70001CD1226A00F03F01914217D147F6C071A2
:100C8000626A0140B1EB821F10D1A26A4FF0FF33BC
:100C900000F4403103EB5202B1EB024F06D194F85D
:100CA0002C1000F07060B0EB016F01D00120D1E793
:100CB0000020CFE70438024000004742800E474240
:100CC000007000400000FFFF10B5401EB0F1807FB3
:100CD00001D3012010BD4FF0E02460610F216017A7
:100CE00000F058F80020A06107202061002010BD0E
:100CF000FFF74EBC30B593B030216846FFF7AAFA33
:100D000014210CA8FFF7A6FA19480025016841F044
:100D100080510160006800F0805011901548016812
:100D200041F4804101600068022400F48040119089
:100D300001200090000401908001CDE9064008AA3E
:100D40000420A82182E813000B906846FFF706FEF6
:100D50000CA90F2081E831004FF4A0500F90E00261
:100D6000109005210CA8FFF795FC13B030BD0000D2
:100D700040380240007000400548016841F47001AD
:100D8000016003494FF0006080390860704700003F
:100D900088ED00E00907090E002804DB00F1E020DF
:100DA00080F80014704700F00F0000F1E02080F898
:100DB000141D704702E008C8121F08C1002AFAD1AA
:100DC00070477047002001E001C1121F002AFBD1CB
:100DD00070474021AFF300800A460146002000F032
:100DE00001B8000030B5C043094D0CE011F8013BDB
:100DF0005840002300F0010464422C405B1C84EA4C
:100E00005000082BF6DB521EF0D2C04330BD00006C
:100E10002083B8ED98B0FFF7C3FBFFF76BFF4B489B
:100E20000027016841F0080101600068142100F00A
:100E30000800169011A8FFF70DFA0120CDE912075E
:100E4000DFF80C814FF4C044119411A94546404687
:100E50001497FFF791FA002221462846FFF78CFBF2
:100E60006846FFF733FA4FF0A03580B16846FFF7C8
:100E700041FA04460198012806D000BF4FF002064F
:100E800008D14FF0B03505E04FF00306F8E7314CDC
:100E90004FF001063048B946016841F080510160C9
:100EA000006800F080501190FFF7E8FB2B480560C8
:100EB00000254FF4005A474611E0012251463846BA
:100EC000FFF75AFB5020FFF745FA002251463846FB
:100ED000FFF752FB7820FFF73DFA6D1CEDB2B542EB
:100EE000EBD3256866681E482840B0F1005F22D128
:100EF00072B6FFF769FCFFF709FA4FF0E021C1F87D
:100F00001090C1F81490C1F818900020421E810082
:100F100001F1E021C1F88021C1F88022401C08289D
:100F2000F5D310480460BFF34F8FBFF36F8F85F385
:100F3000088862B6B0474FF4804421463846FFF730
:100F400013FBC820FFF706FAF7E70000303802402D
:100F5000000C0240000002084038024050280040C7
:100F60000000FE2F08ED00E070B5044600680D4655
:100F7000B0F1A53F05D12046FFF72BFF216C884239
:100F800001D0002070BD442221462846FFF749F9D0
:100F9000012070BD000000000000000001020304F9
:100FA00006070809C40F0008000000201000000018
:100FB000B40D0008D40F0008100000200004000049
:100FC000C40D000801000000100000000000000037
:040FD0000024F40005
:040000050800018965
:00000001FF
