:020000040800F2
:10000000300400209D010008A5010008A701000898
:10001000A9010008AB010008AD01000800000000C4
:10002000000000000000000000000000AF01000818
:10003000B101000800000000B3010008F910000839
:10004000B7010008B7010008B7010008B7010008B0
:10005000B7010008B7010008B7010008B7010008A0
:10006000B7010008B7010008B7010008B701000890
:10007000B7010008B7010008B7010008B701000880
:10008000B7010008B7010008B7010008B701000870
:10009000B7010008B7010008B7010008B701000860
:1000A000B7010008B7010008B7010008B701000850
:1000B000B7010008B7010008B7010008B701000840
:1000C000B7010008B7010008B7010008B701000830
:1000D000B7010008B7010008B7010008B701000820
:1000E000B7010008B7010008B7010008B701000810
:1000F000B7010008B7010008B7010008B701000800
:10010000B7010008B7010008B7010008B7010008EF
:10011000B7010008B7010008B7010008B7010008DF
:10012000B7010008B7010008B7010008B7010008CF
:10013000B7010008B7010008B7010008B7010008BF
:10014000B7010008B7010008B7010008B7010008AF
:10015000B7010008B7010008B7010008B70100089F
:10016000B7010008B7010008B7010008B70100088F
:10017000B7010008B7010008B7010008000000003F
:10018000B7010008B7010008DFF80CD000F08CF8C8
:10019000004800471D120008300400200648804730
:1001A00006480047FEE7FEE7FEE7FEE7FEE7FEE75C
:1001B000FEE7FEE7FEE7FEE781110008890100087F
:1001C0002DE9F05F0546002092469B46884606468C
:1001D000814640241BE0284641464746224600F01F
:1001E00053F853465A46C01A914110D31146184647
:1001F000224600F03AF82D1A67EB01084F462246D6
:100200000120002100F031F817EB00094E41201EBB
:10021000A4F10104DFDC484631462A464346BDE8E6
:10022000F09F40EA01039B0703D009E008C9121FB1
:1002300008C0042AFAD203E011F8013B00F8013BA0
:10024000521EF9D27047D2B201E000F8012B491ECC
:10025000FBD270470022F6E710B513460A46044663
:100260001946FFF7F0FF204610BD202A04DB203A94
:1002700000FA02F1002070479140C2F1200320FAF9
:1002800003F3194390407047202A04DB203A21FAF7
:1002900002F00021704721FA02F3D040C2F120029F
:1002A0009140084319467047064C074D06E0E06848
:1002B00040F0010394E8070098471034AC42F6D3AD
:1002C000FFF766FFE81400080815000830B5A3B072
:1002D000054601A90E4801F0A9F8044612A90D48E7
:1002E00001F0A4F804420ED00D991E98884202D95C
:1002F000442212A901E0442201A92846FFF791FFF8
:10030000012023B030BD002CF5D10028F0D1F8E752
:100310000080000800C000084068012801D00248A1
:1003200070470248704700000000020800000408FF
:10033000F0B51B4DB5B00746002401A9284601F0D1
:1003400075F818B10D98002800D90446154E23A958
:10035000304601F06BF818B12F98A04200D904463E
:100360004422394612A8FFF75CFF4FF0A530641C09
:1003700012901E9412A800F030FF229000F0EAF9CB
:1003800012A9304601F068F8044612A9284601F087
:1003900063F8054600F096F935B005EA0400F0BDB3
:1003A0000080000800C00008002229B101291AD0ED
:1003B00002291BD04FF440720E490B6823F440739E
:1003C0000B600B6813430B600A6822F078020A6026
:1003D0000A68022303EBC00002430A60086840F485
:1003E0008030086070474FF48072E5E74FF4007288
:1003F000E2E70000103C02401348016889050FD570
:10040000016821F400710160016841F4006101603C
:10041000016821F400610160016841F4007101602C
:10042000016849050FD5016821F480610160016808
:1004300041F480510160016821F48051016001683C
:1004400041F4806101607047003C024008490A683D
:1004500022F440720A600A6842F004020A600A68E4
:100460004FF4803343EA002002430A6070470000E3
:10047000103C0240064A136823F44073136013686B
:100480001360136843F001031360017070470000AC
:10049000103C0240094910B50C6824F440740C600B
:1004A0000C6844F440740C600C6844F001040C6067
:1004B0000260BFF36F8F436010BD0000103C02402C
:1004C000074A136823F440731360136843F480737E
:1004D0001360136843F0010313600180704700004C
:1004E000103C0240074A136823F4407313601368FA
:1004F00043F400731360136843F001031360016059
:1005000070470000103C024017490868C2061748AF
:1005100005D5C26942F01002C26110220A600A6861
:10052000920605D5C26942F00802C26120220A6023
:100530000A68520605D5C26942F00402C26140222F
:100540000A600A68120605D5C26942F00202C26159
:1005500080220A600A68920705D5C26942F020022B
:10056000C2610220086070470C3C02400C00002071
:1005700070B5114904460020C86100F007FA06462C
:100580000E4D09E0601C07D024B100F0FFF9801B7C
:10059000A04201D9032070BD2868C003F2D42868A6
:1005A000C00701D001202860286810F0F200F2D0C6
:1005B000FFF7AAFF012070BD0C0000200C3C024098
:1005C0000E4910B50C48086000200860091D0C4A4F
:1005D0000A60086009490B4A10390A600860C122A4
:1005E000091D0A6008600122091D0A60086000F008
:1005F00015FA002010BD0000FFC9FEF620380240A9
:1006000033797704FF11602270B5044600F0BEF91B
:100610000546601C02D004480078044400F0B6F996
:10062000401BA042FAD370BD000000202DE9F04726
:10063000044622480F46017E01290AD00121804646
:1006400001764CF250394846FFF792FF020003D082
:100650002FE00220BDE8F0874FF0FF3038602068BF
:10066000174D012801D0A6681CE0207C6168FFF7C7
:10067000EDFE4846FFF77CFF0246286820F00400A4
:10068000286014E0217C3046FFF78EFE4846FFF7D5
:100690006FFF0200286820F07A00286001D03E60D9
:1006A00005E0761CD4E902100844B042EAD8FFF70E
:1006B000A3FE002188F818101046CBE70C0000209C
:1006C000103C02400348016841F0004101600020F5
:1006D00070470000103C02402DE9F0471B4E0546D4
:1006E0001446307E1F468946012808D00120307606
:1006F0004CF250384046FFF73BFF18B114E002209F
:10070000BDE8F0879DB1012D16D0022D19D02246EB
:100710003B464846FFF7BEFE4046FFF729FF0C491F
:100720000A6822F001020A6000213176E8E7E1B2AE
:100730004846FFF79FFEEFE7A1B24846FFF7C0FE2D
:10074000EAE721464846FFF7CDFEE5E70C0000202A
:10075000103C0240074900200A68002A09DA054ACD
:10076000054B0C3A1360054B13600968002900DA49
:1007700001207047103C024023016745AB89EFCD53
:100780002DE9F84FDFF8BCA10022012503264FF028
:100790000F090AF1040BAAF1040E00BF0B6805FA59
:1007A00002F42340A34270D10F7907F00307012F11
:1007B00001D0022F16D187684FEA420806FA08FCDA
:1007C00027EA0C07D1F80CC00CFA08FC4CEA070C1D
:1007D000C0F808C04768A7430C79C4F300149440DC
:1007E0003C4344600C79E443A4070AD0C4684FEA50
:1007F000420C06FA0CF7BC438F6807FA0CF7274344
:10080000C7600C7904F00304022C12D1D40800EB69
:10081000840CDCF820405707FF0E09FA07F824EA99
:100820000804D1F8108008FA07F848EA0408CCF860
:10083000208004684FEA420C06FA0CF7BC430F799B
:1008400007F0030707FA0CF7274307604C6814F416
:10085000403F70D03C4C276847F4804727602468AD
:1008600022F0030704F480440094384C07EB040C96
:10087000DCF8084897074FEA177809FA08F7BC43ED
:10088000334FB84202D1002724E054E0314FB84240
:1008900001D101271EE0304FB84201D1022719E0F3
:1008A0002E4FB84201D1032714E02D4FB84201D199
:1008B00004270FE02B4FB84201D105270AE02A4F49
:1008C000B84201D1062705E0284FB84201D10727D9
:1008D00000E0082707FA08F72743CCF80878DAF889
:1008E00000405746D1F804C09C435FEACC2C00D5A9
:1008F0001C433C60DBF800405F46D1F804C09C43D9
:100900005FEA8C2C00D51C433C60DEF80040774643
:10091000D1F804C09C435FEA8C3C00D51C433C608A
:10092000084F083F3C68D1F804C09C435FEACC3CC8
:1009300000D51C433C60521C102AFFF42FAFBDE8C9
:10094000F88F0000083C014044380240003001406C
:10095000000002400004024000080240000C024077
:10096000001002400014024000180240001C024027
:10097000426921EA02030A4043EA02418161704769
:100980000AB1816170470904FBE7000001488068F3
:10099000704700000000002002488168027811447E
:1009A00081607047000000200B4810B5016841F4D9
:1009B00000710160016841F480610160016841F4E7
:1009C00080710160032000F04BF80F2000F006F862
:1009D00000F025F8002010BD003C024070B50D4D20
:1009E00004464FF47A712878B1FBF0F00A4909689F
:1009F000B1FBF0F000F06CFB48B9102C07D20022DC
:100A00002146501E00F00CF800206C6070BD0120E3
:100A100070BD0000000000202C00002070477047CF
:100A2000F0B40E4B1B680C46C3F30223C3F1070559
:100A3000042D00D90425191D072901D2002300E047
:100A4000DB1E012606FA05F1491E214099409E4011
:100A5000761E16403143F0BC00F0A0BB0CED00E068
:100A6000064900F0070208684FF6FF03184040EA05
:100A70000220034A10430860704700000CED00E0BC
:100A80000000FA05034908B5012008620248006821
:100A9000009008BD00000E42007000402DE9F047B4
:100AA0000E46050065D0DFF81481D8F80000F7B2D3
:100AB00000F00700B04207D288F80070D8F80000B4
:100AC00000F00700B04254D128683D4C810712D590
:100AD000400703D5206840F4E050206028780007E4
:100AE00003D5206840F4604020602068A96820F0A9
:100AF000F000084320602878C0072DD0304968688E
:100B00000839012812D0022813D0032811D009680F
:100B1000890700292DDA216821F0030101432160B2
:100B2000FFF734FF814641F2883A0EE009688903F5
:100B3000EFE709688901ECE7FFF728FFA0EB09015F
:100B4000514502D90320BDE8F0872068696800F0AC
:100B50000C00B0EB810FEFD1D8F80010404601F047
:100B60000701B14207D90770006800F00700B042E2
:100B700001D00120E7E72878400705D52068E9681B
:100B800020F4E050084320602878000706D520684C
:100B9000296920F4604040EAC100206000F0B2F80A
:100BA0002168084AC1F30311515CC8400649086036
:100BB00006480068FFF712FF0020C4E7003C02402F
:100BC00008380240D81400082C000020040000203F
:100BD0002DE9F041FFF7DAFE444C0546206840F06D
:100BE0000100206005E000BFFFF7D0FE401B022897
:100BF00047D820688007F7D5206840F08000206043
:100C0000FFF7C4FE0546394E00200836306041F239
:100C1000883704E0FFF7BAFE401BB84231D830688D
:100C200010F00C0FF6D1FFF7B1FE0546206820F456
:100C30005020206005E000BFFFF7A8FE401B64289D
:100C40001FD820688003F7D4FFF7A0FE0546206870
:100C500020F08070206004E0FFF798FE401B02281F
:100C60000FD820688001F7D4FFF790FE0546206872
:100C700020F08060206007E0FFF788FE401B02281C
:100C800002D90320BDE8F08120680001F4D417499F
:100C90001748091D08601549164884310860134833
:100CA0000C30016821F4F8510160016821F4005111
:100CB0000160016841F41F010160016841F4001105
:100CC00001600A487430016821F001010160016887
:100CD00041F08071016009490748086008480068D0
:100CE000FFF77CFE0028CDD00120CBE70038024082
:100CF00010300004003000200024F4002C000020FC
:100D000004000020154810B5006810F00C021448CB
:100D100013D04110042A0FD0082A0ED10F4C241FE3
:100D20002268236802F03F025B0207D52068C0F307
:100D30008810A0FB010106E0084610BD2168C1F340
:100D40008811A1FB00010023FFF73AFA2168C1F3E3
:100D50000141491C4900B0FBF1F010BD08380240C8
:100D60000024F4002DE9F84F04006ED02078DFF85D
:100D70004C93C007A9F104054AD009F104000168A9
:100D8000C1F38101012908D00068C0F38100022865
:100D90000AD1D9F80000400206D52868800337D56B
:100DA00060680028E1D033E06068B0F5803F10D083
:100DB000B0F5A02F286810D020F480302860286873
:100DC00020F4802028606068A8B1FFF7DFFD0646A8
:100DD0000DE0286840F48030F4E740F4802028607B
:100DE000F7E700BFFFF7D2FD801B642873D828689F
:100DF0008003F7D50CE0FFF7C9FD064605E000BF0C
:100E0000FFF7C4FD801B6428F0D828688003F7D45E
:100E10002078DFF8AC8280074FF0000A3ED5A74863
:100E2000001D016811F00C0F08D00068C0F38100AC
:100E300002280BD1D9F80000400207D428688007A7
:100E400016D5E068012800D112E033E1E068B8B1BE
:100E50000120C8F80000FFF799FD064605E000BF35
:100E6000FFF794FD801B0228C0D828688007F7D5BB
:100E70002868216920F0F80040EAC10028600DE0F0
:100E8000C8F800A0FFF782FD064604E0FFF77EFDEC
:100E9000801B02281FD828688007F7D42078000715
:100EA00022D5864F87486169703771B10121016091
:100EB000FFF76CFD064604E0FFF768FD801B022883
:100EC00009D838688007F7D50EE0C0F800A0FFF712
:100ED0005DFD064605E082E0FFF758FD801B022815
:100EE0007DD838688007F7D42078400768D5DFF8C8
:100EF000CCB100270BF13C0BDBF80000C0000BD499
:100F0000DBF8001041F08051CBF80010DBF8000056
:100F1000012700F0805000906B4E3068C00510D45F
:100F2000306840F480703060FFF730FD009005E0DD
:100F3000FFF72CFD0099401A022850D83068C005F0
:100F4000F6D55E4EA0686C3601280FD005283068B3
:100F500010D020F001003060306820F004003060D4
:100F6000A068B8B1FFF712FD00900FE0306840F0C4
:100F70000100F4E740F004003060F7E7FFF706FDFA
:100F80000099411A41F28830814266D83068800762
:100F9000F4D50EE0FFF7FAFC009007E0FFF7F6FC4F
:100FA0000099411A41F28830814256D83068800752
:100FB000F4D42FB1DBF8001021F08051CBF80010F1
:100FC000A069C8B33D49091D0968C1F3810102291F
:100FD0004AD00228504607D0C8F8600000E03CE044
:100FE000FFF7D4FC04463BE04746C8F86000FFF733
:100FF000CDFC064605E000BFFFF7C8FC801B0228B9
:101000002BD828688001F7D4D4E907010843A16AE6
:101010002E4A490802EB0141626A41EA8211084303
:1010200094F82C1040EA0161C9F8001001203866DC
:10103000FFF7ACFC044606E03EE000BFFFF7A6FC6D
:10104000001B022809D828688001F7D534E000BFCA
:10105000FFF79CFC001B022802D90320BDE8F88F93
:1010600028688001F4D427E00128F7D0D9F80000DF
:10107000E26900F4800191421CD1226A00F03F0134
:10108000914217D147F6C071626A0140B1EB821FED
:1010900010D1A26A4FF0FF3300F4403103EB52024B
:1010A000B1EB024F06D194F82C1000F07060B0EB59
:1010B000016F01D00120D1E70020CFE704380240C2
:1010C00000004742800E4742007000400000FFFFD2
:1010D00010B5401EB0F1807F01D3012010BD4FF04C
:1010E000E02460610F21601700F058F80020A06133
:1010F00007202061002010BDFFF74EBC30B593B033
:1011000030216846FFF7A6F814210CA8FFF7A2F8D3
:1011100019480025016841F080510160006800F025
:10112000805011901548016841F4804101600068C9
:10113000022400F4804011900120009000040190EE
:101140008001CDE9064008AA0420A82182E8130006
:101150000B906846FFF706FE0CA90F2081E83100CE
:101160004FF4A0500F90E002109005210CA8FFF75B
:1011700095FC13B030BD00004038024000700040C4
:101180000548016841F47001016003494FF00060B7
:10119000803908607047000088ED00E00907090EFB
:1011A000002804DB00F1E02080F80014704700F014
:1011B0000F0000F1E02080F8141D704702E008C81D
:1011C000121F08C1002AFAD170477047002001E0C1
:1011D00001C1121F002AFBD170474021AFF30080EC
:1011E0000A460146002000F001B8000030B5C043B7
:1011F000094D0CE011F8013B5840002300F00104B8
:1012000064422C405B1C84EA5000082BF6DB521E23
:10121000F0D2C04330BD00002083B8ED98B0FFF796
:10122000C3FBFFF76BFF79480027016841F0080115
:1012300001600068142100F00800169011A8FFF763
:1012400009F80120CDE91207DFF8C4B14FF4C0441A
:10125000119411A95D4658461497FFF791FA0022A0
:1012600021462846FFF78CFB6A4D45F25550286011
:10127000062068604FF4FA70A8604AF6AA28C5F8FC
:1012800000804CF6CC4028606846FFF71FF8624C9F
:101290004FF0A03910B30A984FF0B03A00B30B9852
:1012A000401C0B90032814D201986946012813D8DA
:1012B00001EB8006B16861B3316951B1B1F5003F0E
:1012C00007D801281BD02046FFF78AFFB169814269
:1012D0001FD00198012814D0012014E001262AE033
:1012E0006846FFF719F804460198012804D000BFAA
:1012F0004FF0020637D01EE04FF00306FAE74748EA
:10130000E2E74FF000000B970A974FF004060190B8
:1013100003E00198012824D002264446C5F8008045
:101320006846FFF705F82C606846FEF7F5FF0446AF
:101330000198012817D0484681463448103001688A
:1013400041F080510160006800F080501190FFF77B
:1013500099FB3349C1F80090A9460027DA46454673
:1013600019E00326D9E75046E6E74FF4005801227A
:1013700041465046FFF704FB5020FFF745F9002295
:1013800041465046FFF7FCFA7820FFF73DF9C9F8CF
:1013900000507F1CFFB2B742E7D3A8464E46C9F8BB
:1013A0000050256867681F482840B0F1005F1FD1D2
:1013B00072B6FFF70DFCFFF703F94FF0E0210020B4
:1013C000086148618861421E810001F1E021C1F895
:1013D0008021C1F88022401C0828F5D312480460FF
:1013E000BFF34F8FBFF36F8F85F3088862B6B8479E
:1013F000544645464FF4804739462046FFF7B8FA31
:10140000C820FFF701F93560F6E7000030380240E8
:10141000000C0240003000400000020800000408F8
:10142000502800400000FE2F08ED00E070B5044693
:1014300000680D46B0F1A53F05D12046FFF7CDFE6F
:10144000216C884201D0002070BD442221462846EC
:10145000FEF7E7FE012070BD2DE9F04704461C4869
:101460000225002786B08A46844201D12E4603E039
:1014700018498C4212D1032614216846FEF7EAFE71
:10148000B846384605970127CDE900070296CDE911
:10149000037505A96846FFF7C9F818B1002006B022
:1014A000BDE8F087B9462646554600244FEA0807AE
:1014B00055F8242006EB840100230220FFF70CF9E5
:1014C00008B13846EBE7641C112CF1D34846E6E737
:1014D0000080000800C000080000000000000000BC
:1014E000010203040607080908150008000000208F
:1014F00030000000BC110008381500083000002042
:1015000000040000CC1100080100000010000000E1
:1015100000000000000000000000000000000000CB
:1015200000000000010000000000000000000000BA
:08153000000000000024F4009B
:040000050800018965
:00000001FF
