:020000040800F2
:10000000680800209D0100080F2F0008C524000883
:100010000D2F000885040008FB35000800000000D3
:10002000000000000000000000000000852F000814
:10003000E906000800000000112F00083930000810
:10004000B7010008B7010008B7010008B7010008B0
:10005000B7010008B7010008B7010008B7010008A0
:10006000B7010008B7010008B7010008B701000890
:10007000B7010008B7010008B7010008B701000880
:10008000B7010008B7010008B7010008B701000870
:10009000B7010008B7010008B7010008B701000860
:1000A000B7010008B7010008B7010008B701000850
:1000B000B7010008E1300008B7010008B7010008E7
:1000C000B7010008B7010008B7010008B701000830
:1000D000B7010008B7010008F7350008B7010008AC
:1000E000B7010008B7010008B7010008B701000810
:1000F000F9300008B7010008ED300008B70100082A
:10010000B7010008B7010008B7010008B7010008EF
:10011000B7010008B7010008B7010008B7010008DF
:10012000B7010008B7010008B7010008B7010008CF
:10013000B7010008B7010008B7010008B7010008BF
:10014000B7010008B7010008B7010008B7010008AF
:10015000B7010008B7010008B7010008B70100089F
:10016000B7010008B7010008B7010008B70100088F
:10017000B7010008B7010008B7010008000000003F
:10018000B7010008B7010008DFF80CD000F08CF8C8
:10019000004800473D3600086808002006488047B0
:1001A00006480047FEE7FEE7FEE7FEE7FEE7FEE75C
:1001B000FEE7FEE7FEE7FEE7D13000088901000810
:1001C0002DE9F05F0546002092469B46884606468C
:1001D000814640241BE0284641464746224600F01F
:1001E00053F853465A46C01A914110D31146184647
:1001F000224600F03AF82D1A67EB01084F462246D6
:100200000120002100F031F817EB00094E41201EBB
:10021000A4F10104DFDC484631462A464346BDE8E6
:10022000F09F40EA01039B0703D009E008C9121FB1
:1002300008C0042AFAD203E011F8013B00F8013BA0
:10024000521EF9D27047D2B201E000F8012B491ECC
:10025000FBD270470022F6E710B513460A46044663
:100260001946FFF7F0FF204610BD202A04DB203A94
:1002700000FA02F1002070479140C2F1200320FAF9
:1002800003F3194390407047202A04DB203A21FAF7
:1002900002F00021704721FA02F3D040C2F120029F
:1002A0009140084319467047064C074D06E0E06848
:1002B00040F0010394E8070098471034AC42F6D3AD
:1002C000FFF766FF543900087439000810B501467D
:1002D000806B026C12F0500F05D0026CD20626D54E
:1002E00000F030FC10BD016C41F400710164016844
:1002F0008A6812F0405F17D1027EAAB9CA6A12F466
:10030000700F02D08A6852050ED44A6822F020028B
:100310004A60016C21F480710164016CC90403D44A
:10032000016C41F00101016400F00AFC10BD806B1A
:10033000C26CBDE810400846104710B5806B4021E4
:100340000164416C41F00401416400F0FBFB10BD0D
:1003500010B5806B00F0F5FB10BD0000464910B5EC
:100360004A6822F440324A604A6843681A434A6045
:1003700001684A6822F480724A6001684A68036929
:1003800042EA03224A6001684A6822F040724A60E9
:1003900001684A6883681A434A6001688A6822F4DF
:1003A00000628A6001688A68C3681A438A60816A49
:1003B0006FF07062D14201688A6822F070628A60D0
:1003C00001688A680CD0836A1A438A6001688A6867
:1003D00022F040528A6001688A68C36A1A4301E0C9
:1003E00022F040528A6001688A6822F002028A6024
:1003F00001688A68037E42EA43028A6090F820100E
:10040000002901684A680FD042F400624A6001681E
:100410004A6822F460424A6001684A68174C436A9D
:1004200004EB43331A4301E022F400624A6001689E
:10043000CA6A22F47002CA620168CA6A838B104CCD
:1004400004EB03531A43CA6201688A6822F40072FB
:100450008A6001688A6890F8303042EA43228A60F4
:1004600001688A6822F480628A6001688A6840694B
:1004700042EA8020886010BD0023014000E0FFFFB9
:100480000000F0FFFEE7000001490860704700002F
:100490003C0000202DE9F05F264F254EDFF89880C4
:1004A000264D00244FF4005A4FF4804B07F13209D7
:1004B000E00706D000225146304600F0C7FD012279
:1004C00005E001225146304600F0C0FD00225946A9
:1004D000304600F0BBFD37F814102A68B8FBF1F085
:1004E0001168401EC862D06011684008486300214E
:1004F000104601F06FFE39F8140000F09DFC002159
:10050000286801F0CBFE00224FF4C041304600F0D5
:100510009DFD142000F090FC641C192CC8D33046BB
:10052000BDE8F05F00224FF4C04100F08FBD000035
:10053000000C0240A038000840420F003C000020A0
:1005400070B5174A0168914221D1017F01291ED15E
:10055000144C217800250029294619D001F0E5FE28
:10056000A060A06861688842A0686168A0EB010093
:10057000E16801EBC10202EB011100EB410000D286
:10058000323018B10849B1FBF0F02061257070BD20
:1005900001F0CBFE6060E5600120207070BD0000BE
:1005A000000400402000002040420F0010B5064C1F
:1005B0000021606101F05AFC60690068C16841F087
:1005C0000101C16010BD0000200000200068094941
:1005D00088420DD108480178012909D1C168491C18
:1005E000C160C168B1F57A7F02D900210161017053
:1005F00070470000000400402000002008B10122E4
:1006000000E000228021014800F020BD000C0240E3
:1006100010B5642800D96420094C62691368D96A4E
:10062000491C41436420B1FBF0F0986360780028D6
:1006300005D10421104601F0CDFD0120607010BDF0
:100640002000002001681823CAB2103AB2FBF3F26E
:10065000054B6FF30901032A9B5CC36500D9091D93
:1006600081650846704700003439000810B501461E
:1006700000208B698A6A4FF0C07453B1B3F5005FF4
:1006800015D072B1012A0CD0022A0AD0032A09D14E
:1006900004E01AB1012A06D0022A03D1C96AC901AD
:1006A00000D5012010BDC96AA142FAD010BD002AB0
:1006B000F7D0012AF2D0022AF3D0032AF3D010BDDA
:1006C00030B50468256825F48025256004686360DA
:1006D0008368402B036803D099600068C26030BD16
:1006E0009A600068C16030BD704772B6FEE70000D6
:1006F000004870475400002010B50F4C0021A06046
:1007000021706171A17104F11402116002686FF02F
:100710000F0111600068406800220221262000F0CD
:10072000F3FF262000F0E2FFA0680068C16841F0F6
:100730002001C16010BD00004000002038B5174CFA
:1007400027E0A079154900F003000C310A5C091D6F
:10075000095C012A02D0202A18D107E010A0042148
:1007600000680090684603F075F80FE00D4A032911
:1007700002EB40100AD30178427841EA022207498D
:1007800014310A80807888700120C870A079401CDC
:10079000A071A07961798842D3D138BD4000002092
:1007A000AA810081A803002070B533488168002920
:1007B00004D009680A68130701D0486870BD920622
:1007C000FCD549682D4AC379C9B2D154C279521CAB
:1007D00002F03F02C2718269521C82610378274D88
:1007E00004220024A03D052BE8D2DFE803F0030833
:1007F0000C1A2700AA29E1D10121017070BD4170B6
:1008000001710221F9E7817003794B400371C470D3
:10081000817820292ED8817809B10321EDE7027073
:1008200070BDC378E95403794B400371C178491C0A
:10083000C170C17883789942F1D270BD027991423A
:1008400018D14379427803F003010B4E0C367254F1
:100850008278361D7254094E0022803E06EB41110B
:1008600003E0AE5C8E54521CD2B28678B242F8D30A
:100870005B1C4371047070BD400000202804002000
:100880000EB5AA218DF80010A0218DF801100821C5
:100890008DF8021001788DF8031001886A46090A64
:1008A0008DF8041081788DF8051001798DF8061007
:1008B0008188090A8DF8071081798DF80810017A6E
:1008C0008DF809100089A821000A8DF80A0000207F
:1008D0001318401CDB78C0B259400828F8D38DF8B3
:1008E0000B100C21104602F0B5FF0EBD70B5184A72
:1008F0000168914224D1017F022921D1154C217830
:10090000002500294FF004011BD001F00EFDA0606E
:10091000A06861688842A0686168A0EB0100E16896
:1009200000EB014001D200F5803040B10A49B1FB33
:10093000F0F0411EB1F57A7F00D3002020612570D0
:1009400070BD01F0F2FC6060E5600120207070BDB8
:10095000000401400400002040420F0008B10122C1
:1009600000E000224021014800F070BB0008024076
:1009700010B5074C60610846A161042101F076FAC8
:10098000A0690068C16841F00101C16010BD0000AC
:10099000040000200068084988420CD1074801780B
:1009A000012908D1C168491CC160C168642902D904
:1009B0000021016101707047000401400400002023
:1009C00010B5642800D96420094C62691368D96A9B
:1009D000491C41436420B1FBF0F0D86360780028E3
:1009E00005D10821104601F0F5FB0120607010BD13
:1009F0000400002078B50024009490F83C20012ADF
:100A000019D0012280F83C200A6807230568092ACA
:100A100013D9EE680A3A02EB420293409E43EE601D
:100A20000B788A680A3B03EB43039A400368DD684E
:100A30002A43DA6010E0022078BD2E6902EB420200
:100A400093409E432E610B788A6803EB43039A40E0
:100A500003681D692A431A614A681F23072A13D2B3
:100A600005686E6B521E02EB820293409E436E63DA
:100A70000B790A885B1E92B203EB83039A400368EA
:100A80005D6B2A435A6327E005680D2A12D22E6B4C
:100A9000D21F02EB820293409E432E630B790A8899
:100AA000DB1F92B203EB83039A4003681D6B2A435A
:100AB0001A6311E0EE6A0D3A02EB820293409E4304
:100AC000EE620B790A880D3B92B203EB83039A40E6
:100AD0000368DD6A2A43DA62164B0568144A9D42B0
:100AE00006D10D68122D03D1556845F48005556077
:100AF00005689D4218D10B68102B01D0112B13D122
:100B0000536843F400035360096810290CD10A4963
:100B10000A4A0968B1FBF2F101EB8101490000E0EA
:100B2000491E00910029FBD180F83C40002078BD8F
:100B300000230140002001406800002040420F00D7
:100B400070477047704770B504004FF0000503D040
:100B5000206C002610B107E0012070BD204600F097
:100B60001CF8666484F83C60206CC00610D4206CCD
:100B700020F4885040F0020020642046FFF7EEFB8E
:100B80006664206C20F0020040F00100206400E068
:100B9000012584F83C60284670BD7047F8B50E46C4
:100BA00000210446009190F83C0013460A460128B3
:100BB00007D0012084F83C0020688568ED0702D04A
:100BC00011E00220F8BD856845F0010585604048C8
:100BD000404D0068B0FBF5F000EB400000E0401E27
:100BE00000900028FBD120688568ED0503D5856855
:100BF00025F48075856020688568ED075DD0226CDE
:100C000040F20165AA4342F48072226440684005C4
:100C100005D5206C20F4005040F480502064206CF6
:100C2000C00404D5606C20F00600606400E06164DC
:100C300084F83C10A16B2948274DC863A16B284854
:100C40000864A16B2748C86421686FF0220008601F
:100C50002068416841F0806141602068816841F40A
:100C600080718160216832464C31A06B00F0ACF895
:100C7000024668681C49C006206806D0884224D114
:100C8000816811F0405F13D01FE08842F8D0174B05
:100C9000984203D1D1F80433DB06F1D0144B9842CB
:100CA00013D1D1F8041301F01F011029E8D30CE08F
:100CB000816841F08041816007E0206C40F01000C5
:100CC0002064606C40F0010060641046F8BD0000D4
:100CD0006800002040420F0000230140CD020008C0
:100CE000510300083B03000800200140002101409F
:100CF000002201402DE9F041044600F0ADF906461E
:100D00005CB1022084F83500002584F83450206856
:100D1000016821F0010101600DE00120BDE8F081D2
:100D200000F09AF9801B052805D920206065032072
:100D300084F83500F2E720680068C007F0D1226827
:100D4000116820480140D4E901031843D4E903366F
:100D50003343184363691843A3691843E36918438D
:100D6000236A18430843616A042903D1D4E90B13A9
:100D700019430843106020684069666A20F0070143
:100D800030460E43012704280CD1A06A0643E06ACE
:100D900040B12046FFF76AFC20B14020606584F82E
:100DA0003570BAE7206846612046FFF74BFC94F89F
:100DB0005C203F2191408160656584F8357000209A
:100DC000ACE700003F8010F02DE9F0410446866D4D
:100DD00090F83400002501280DD0012084F834005B
:100DE00094F835700020012F07D084F834000225D4
:100DF0002846BDE8F0810220FBE7022784F8357021
:100E000060652046FFF75CFC94F85C103F2088404A
:100E1000B0602068016841F016010160206C20B1CB
:100E20002068016841F0080101602068016841F014
:100E300001010160DCE7000070B5044600F00CF928
:100E40000546601C02D004480078044400F004F910
:100E5000401BA042FAD370BD5C0000202DE9F84F82
:100E6000DFF8BCA10022012503264FF00F090AF18B
:100E7000040BAAF1040E00BF0B6805FA02F423402C
:100E8000A34270D10F7907F00307012F01D0022F81
:100E900016D187684FEA420806FA08FC27EA0C07D1
:100EA000D1F80CC00CFA08FC4CEA070CC0F808C0DA
:100EB0004768A7430C79C4F3001494403C43446052
:100EC0000C79E443A4070AD0C4684FEA420C06FA3E
:100ED0000CF7BC438F6807FA0CF72743C7600C79FF
:100EE00004F00304022C12D1D40800EB840CDCF8CB
:100EF00020405707FF0E09FA07F824EA0804D1F842
:100F0000108008FA07F848EA0408CCF82080046842
:100F10004FEA420C06FA0CF7BC430F7907F00307BF
:100F200007FA0CF7274307604C6814F4403F70D071
:100F30003C4C276847F480472760246822F0030769
:100F400004F480440094384C07EB040CDCF80848A7
:100F500097074FEA177809FA08F7BC43334FB842AE
:100F600002D1002724E054E0314FB84201D10127DB
:100F70001EE0304FB84201D1022719E02E4FB8428F
:100F800001D1032714E02D4FB84201D104270FE00F
:100F90002B4FB84201D105270AE02A4FB84201D1B0
:100FA000062705E0284FB84201D1072700E00827AF
:100FB00007FA08F72743CCF80878DAF800405746D4
:100FC000D1F804C09C435FEACC2C00D51C433C60A4
:100FD000DBF800405F46D1F804C09C435FEA8C2CEC
:100FE00000D51C433C60DEF800407746D1F804C0D1
:100FF0009C435FEA8C3C00D51C433C60084F083F93
:101000003C68D1F804C09C435FEACC3C00D51C434B
:101010003C60521C102AFFF42FAFBDE8F88F00008F
:10102000083C0140443802400030014000000240CA
:101030000004024000080240000C02400010024080
:101040000014024000180240001C02400AB18161F5
:1010500070470904FBE70000014880687047000002
:101060005C00002070B5040025D094F83D000025F8
:1010700020B984F83C50204600F052FA242084F82D
:101080003D002068016821F00101016020680168CD
:1010900041F4004101602068016821F400410160D1
:1010A00000F0FEFB4D4A6168914201D84C4900E0D6
:1010B0004C49884201D2012070BD4B492368B0FBE6
:1010C000F1F15E6826F03F060E435E60636893426E
:1010D00006D94FF4967359434FF47A73B1FBF3F189
:1010E0002368491C1E6A26F03F0631431962616875
:1010F000914210D84900401EB0FBF1F2521CC2F3DD
:101100000B02042A01D2042022E0B0FBF1F0401CC3
:10111000C0F30B001CE0A268F2B301EBC10303EBC8
:101120000116431EB3FBF6F35B1C43F480431B051F
:1011300049D092B301EBC10202EB0111401EB0FB9A
:10114000F1F0401CC0F30B0040F4804040F400403C
:101150002168CA694CF6FF739A431043C861D4E909
:10116000071001432068026822F0C00211430160A9
:10117000D4E9030101432068826848F2FF339A43AF
:1011800011438160D4E9050108432168CA6822F04F
:10119000FF021043C86001E00EE016E0206801681D
:1011A00041F0010101602564202084F83D002563A1
:1011B00084F83E50002070BD01EB4106431EB3FB96
:1011C000F6F35B1CB3E70120C2E701EB4101401ECF
:1011D000B0FBF1F0401CC0F30B00B7E7A0860100A4
:1011E00080841E0000093D0040420F002DE9FF4FA2
:1011F00083B09A46DDE9118793460446DDF84090B6
:10120000FFF72AFF054694F83D00202870D11923E6
:10121000012274492046009501F06AFA0028F5D1B0
:1012200094F83C00012863D0012084F83C00206839
:101230000168C90703D1016841F00101016020681C
:10124000016821F400610160222084F83D00402003
:1012500084F83E0000262664C4F82490A4F82A806E
:10126000608D20856048E062CDE9007553465A469E
:101270002046049901F03EF9002879D1208DD0B1A3
:10128000012821D00228206824D04169806900907B
:10129000208D032866D801282BD0544902283B46CC
:1012A0004FF00002009557D08846204601F020FA02
:1012B00000285DD13AE020684169816900910168A8
:1012C00041F4007101607DE02068016821F48061D3
:1012D0000160F0E7016821F4806101602068016825
:1012E00041F400610160206841698069009069E013
:1012F00075E02A463946204601F0A0FA88BB54E042
:101300002068016841F40071016020680069616A29
:101310000870606A401C6062218D491E2185618DC4
:10132000491E618521680969017042E020680168F1
:1013300021F48061016020680069616A0870606A58
:10134000401C6062208D401E2085608D401E60859F
:101350003B46002241460095204601F0C9F900B9FC
:10136000CEE705E02A463946204601F067FA18B173
:10137000012007B0BDE8F08F20680069616A08703D
:10138000606A401C6062208D401E81B22185608DA4
:10139000401E608520684269D243520712D4032957
:1013A00003D1016821F48061016020680069616AED
:1013B0000870606A401C6062208D401E2085608D30
:1013C000401E6085208D00287FF462AF202084F8C5
:1013D0003D0084F83E6084F83C600020C9E70220AC
:1013E000C7E70000020010000000FFFF040001003A
:1013F0002DE9FF4F83B09A46DDE9119793460446E5
:10140000DDF84080FFF728FE054694F83D002028CF
:101410007FD11923012240492046009501F068F947
:10142000002876D194F83C00012872D0012084F87D
:101430003C0020680168C90703D1016841F001013F
:1014400001602068016821F400610160212084F8B6
:101450003D00402084F83E0000262664C4F8248025
:10146000A4F82A90608D20852C48E062CDE90075B3
:1014700053465A462046049901F0BAF870B930E054
:101480002A463946204601F011FA58B1206C04284A
:1014900004D12068016841F400710160012007B0A7
:1014A000BDE8F08F606A216800780861606A401CBE
:1014B0006062218D491E89B22185628D521E62852E
:1014C00022685369DB435B070BD469B10078106174
:1014D000606A401C6062208D401E2085608D401E29
:1014E0006085208D0028CBD12A463946204601F060
:1014F000D3F80028CAD154F83D0B016841F40071BB
:101500000160202004F81E09E67766770020C6E710
:10151000FFE70220C3E70000020010000000FFFF09
:101520002DE9F04186B0044614216846FEF792FE8C
:1015300023683B4CDFF8E4C000223949122503261A
:10154000042738481034634518D10B6843F0020370
:101550000B60096802AB01F002010591C021CDE9E1
:10156000001583E8C4006946FFF778FC206840F462
:1015700000102060206800F400101CE0DFF8A8C014
:1015800063451CD10B6843F002030B60096802AB92
:1015900001F0020105914FF44061CDE9001583E8A7
:1015A000C4006946FFF75AFC206840F480002060C0
:1015B000206800F48000059006B0BDE8F0811B486B
:1015C0008342F9D10868904640F00400086008683A
:1015D00000F004000590086840F001000860086809
:1015E000694600F00100059058158DE8210110486A
:1015F000CDE90367FFF732FC4FF480708DE82101DD
:1016000069460C48CDE90367FFF728FC206840F4E1
:1016100000002060206800F40000CCE70054004087
:10162000303802400004024000580040005C004096
:10163000000802400000024002488168027811441C
:10164000816070475C0000200B4810B5016841F4D0
:1016500000710160016841F480610160016841F43A
:1016600080710160032000F06FF80F2000F006F891
:1016700000F024F8002010BD003C024070B50D4D74
:1016800004464FF47A712878B1FBF0F00A490968F2
:10169000B1FBF0F000F00AFB48B9102C07D2002291
:1016A0002146501E00F030F800206C6070BD012013
:1016B00070BD00005C000020680000200A4808B5EA
:1016C000016841F480410160006800F480400090AE
:1016D0000548001F016841F080510160006800F07A
:1016E0008050009008BD000044380240002809DB0B
:1016F00000F01F02012191404009800000F1E0202C
:10170000C0F8001170470000F0B40E4B1B680C4687
:10171000C3F30223C3F10705042D00D90425191DC5
:10172000072901D2002300E0DB1E012606FA05F19D
:10173000491E214099409E40761E16403143F0BC20
:1017400001F05CBF0CED00E0064900F007020868FC
:101750004FF6FF03184040EA0220034A1043086096
:10176000704700000CED00E00000FA052DE9F0479D
:101770000E46050065D0DFF81481D8F80000F7B2F6
:1017800000F00700B04207D288F80070D8F80000D7
:1017900000F00700B04254D128683D4C810712D5B3
:1017A000400703D5206840F4E05020602878000707
:1017B00003D5206840F4604020602068A96820F0CC
:1017C000F000084320602878C0072DD030496868B1
:1017D0000839012812D0022813D0032811D0096833
:1017E000890700292DDA216821F0030101432160D6
:1017F000FFF732FC814641F2883A0EE0096889031E
:10180000EFE709688901ECE7FFF726FCA0EB090187
:10181000514502D90320BDE8F0872068696800F0CF
:101820000C00B0EB810FEFD1D8F80010404601F06A
:101830000701B14207D90770006800F00700B04205
:1018400001D00120E7E72878400705D52068E9683E
:1018500020F4E050084320602878000706D520686F
:10186000296920F4604040EAC100206000F038F8A7
:101870002168084AC1F30311515CC8400649086059
:1018800006480068FFF7FAFE0020C4E7003C02406B
:10189000083802403C390008680000206000002041
:1018A0000448054900680968044AC1F38221515C73
:1018B000C840704768000020083802404C390008D2
:1018C0000448054900680968044AC1F34231515C83
:1018D000C840704768000020083802404C390008B2
:1018E000154810B5006810F00C02144813D04110D0
:1018F000042A0FD0082A0ED10F4C241F2268236817
:1019000002F03F025B0207D52068C0F38810A0FBFD
:10191000010106E0084610BD2168C1F38811A1FB52
:1019200000010023FEF74CFC2168C1F30141491C72
:101930004900B0FBF1F010BD083802400024F4006B
:101940002DE9F84F04006ED02078DFF84C93C007E3
:10195000A9F104054AD009F104000168C1F381012D
:10196000012908D00068C0F3810002280AD1D9F803
:101970000000400206D52868800337D5606800283B
:10198000E1D033E06068B0F5803F10D0B0F5A02F13
:10199000286810D020F480302860286820F4802047
:1019A00028606068A8B1FFF757FB06460DE028687D
:1019B00040F48030F4E740F480202860F7E700BF6F
:1019C000FFF74AFB801B642873D828688003F7D58B
:1019D0000CE0FFF741FB064605E000BFFFF73CFBCC
:1019E000801B6428F0D828688003F7D42078DFF8BB
:1019F000AC8280074FF0000A3ED5A748001D016861
:101A000011F00C0F08D00068C0F3810002280BD140
:101A1000D9F80000400207D42868800716D5E0688E
:101A2000012800D112E033E1E068B8B10120C8F824
:101A30000000FFF711FB064605E000BFFFF70CFBB7
:101A4000801B0228C0D828688007F7D5286821693C
:101A500020F0F80040EAC10028600DE0C8F800A0BE
:101A6000FFF7FAFA064604E0FFF7F6FA801B0228B1
:101A70001FD828688007F7D42078000722D5864F22
:101A800087486169703771B101210160FFF7E4FA9D
:101A9000064604E0FFF7E0FA801B022809D8386800
:101AA0008007F7D50EE0C0F800A0FFF7D5FA06468C
:101AB00005E082E0FFF7D0FA801B02287DD8386865
:101AC0008007F7D42078400768D5DFF8CCB100272D
:101AD0000BF13C0BDBF80000C0000BD4DBF800106E
:101AE00041F08051CBF80010DBF80000012700F036
:101AF000805000906B4E3068C00510D4306840F4C0
:101B000080703060FFF7A8FA009005E0FFF7A4FAB4
:101B10000099401A022850D83068C005F6D55E4EAC
:101B2000A0686C3601280FD00528306810D020F04E
:101B300001003060306820F004003060A068B8B167
:101B4000FFF78AFA00900FE0306840F00100F4E7F8
:101B500040F004003060F7E7FFF77EFA0099411A81
:101B600041F28830814266D830688007F4D50EE0B3
:101B7000FFF772FA009007E0FFF76EFA0099411A3A
:101B800041F28830814256D830688007F4D42FB1B2
:101B9000DBF8001021F08051CBF80010A069C8B329
:101BA0003D49091D0968C1F3810102294AD0022873
:101BB000504607D0C8F8600000E03CE0FFF74CFA60
:101BC00004463BE04746C8F86000FFF745FA064682
:101BD00005E000BFFFF740FA801B02282BD82868D9
:101BE0008001F7D4D4E907010843A16A2E4A4908C5
:101BF00002EB0141626A41EA8211084394F82C1019
:101C000040EA0161C9F8001001203866FFF724FAA4
:101C1000044606E03EE000BFFFF71EFA001B022864
:101C200009D828688001F7D534E000BFFFF714FA1F
:101C3000001B022802D90320BDE8F88F2868800124
:101C4000F4D427E00128F7D0D9F80000E26900F4C5
:101C5000800191421CD1226A00F03F01914217D1CC
:101C600047F6C071626A0140B1EB821F10D1A26ACF
:101C70004FF0FF3300F4403103EB5202B1EB024F5F
:101C800006D194F82C1000F07060B0EB016F01D019
:101C90000120D1E70020CFE704380240000047428E
:101CA000800E4742007000400000FFFF10B5401E4C
:101CB000B0F1807F01D3012010BD4FF0E0246061BE
:101CC0000F21601701F09AFC0020A061072020611D
:101CD000002010BD7047704710B50446FEF706FEA1
:101CE0002046BDE81040FEF72BBC2DE9F04105462B
:101CF00090F83C0000260C46012810D0012085F801
:101D00003C0072B1042A1CD0082A2CD00C2A50D0D6
:101D10000126002085F83C003046BDE8F081022015
:101D2000FBE7D4E90012E368286801F023FB286888
:101D3000816921F00C01816128688169A2681143E1
:101D40000FE0D4E90012E368286801F053FB28682B
:101D5000816921F44061816128688169A26841EA52
:101D600002218161D5E72868D4E9002C277B036A2A
:101D7000016A21F480710162C16923F4206321F0BA
:101D8000030141EA0C0121F0F00C39074FF4206700
:101D90004CEA116107EA02221A43C1610262286813
:101DA000C16921F00C01C1612868C169A2681143B1
:101DB0002BE02868D4E90021E768036AD0F820C046
:101DC0002CF4805CC0F820C0D0F81CC023F4204361
:101DD0002CF4407C4CEA012121F4704C4FF6FF7149
:101DE00001EA07314FF4204741EA0C0107EA0232C9
:101DF0001A43C16102622868C16921F44061C1616E
:101E00002868C169A26841EA0221C16181E710B571
:101E1000040003D094F83D0010B107E0012010BD8C
:101E2000002084F83C00204600F01EF8022084F8D0
:101E30003D00211D206801F065F9012084F846006D
:101E400084F83E0084F83F0084F8400084F84100A4
:101E500084F8420084F8430084F8440084F8450084
:101E600084F83D00002010BD7047000030B50446E6
:101E7000002551B104290DD0082910D094F8410053
:101E800094F84520012811D10EE094F83E0094F812
:101E90004220F7E794F83F0094F84320F2E794F8E3
:101EA000400094F84420EDE7012A01D0012030BD24
:101EB000022059B1042912D0082919D084F8410010
:101EC00084F845000C2944D0012540E084F83E0008
:101ED00084F842002068C26842F0020210E084F8F0
:101EE0003F0084F843002068C26842F0040207E023
:101EF00084F8400084F844002068C26842F0080278
:101F0000C2600122206801F065F914492068884206
:101F100014D0B0F1804F11D0114988420ED0114930
:101F200088420BD01049884208D01049884205D019
:101F30000F49884202D00F49884204D1816801F0DC
:101F40000701062903D0016841F00101016028461C
:101F500030BD2068C26842F01002D1E700000140A5
:101F60000004004000080040000C00400004014054
:101F700000400140001800402DE9F041044600688F
:101F8000C66805694FF00007A90713D5B10711D539
:101F9000F91E0161012020772068806980072046B2
:101FA00002D0FFF799FE04E000F07EF8204600F032
:101FB00010F92777680716D5700714D521686FF0D8
:101FC00004000861022020772068806910F4407FB7
:101FD000204602D0FFF780FE04E000F065F82046BE
:101FE00000F0F7F82777280715D5300713D52168B3
:101FF0006FF008000861042020772068C06980071E
:10200000204602D0FFF768FE04E000F04DF82046BD
:1020100000F0DFF82777E80616D5F00614D521681A
:102020006FF010000861082020772068C06910F464
:10203000407F204602D0FFF74FFE04E000F034F866
:10204000204600F0C6F82777E80708D0F00706D04A
:1020500021686FF001000861204600F05DF9280654
:1020600008D5300606D521686FF08000086120464B
:10207000FFF730FE680608D5700606D521686FF0B8
:1020800040000861204600F065F9A8060AD5B006B0
:1020900008D521686FF0200008612046BDE8F041B6
:1020A000FFF719BEBDE8F081704770B5044690F89F
:1020B0003C0000260D4601280FD0012084F83C008A
:1020C0006AB1042A1DD0082A2FD00C2A3FD001263D
:1020D000002084F83C00304670BD022070BD2068AE
:1020E00001F086F82068816941F00801816120686B
:1020F000816921F004018161206881692A691143A5
:1021000011E0206801F0A4F82068816941F40061C1
:1021100081612068816921F4806181612068816921
:102120002A6941EA02218161D2E7206801F0C6F8FC
:102130002068C16941F00801C1612068C16921F0CE
:102140000401C1612068C1692A69114311E0206856
:1021500001F0E8F82068C16941F40061C1612068BC
:10216000C16921F48061C1612068C1692A6941EABD
:102170000221C161ACE710B5040003D094F83D0022
:1021800010B107E0012010BD002084F83C0020467B
:1021900000F01EF8022084F83D00211D206800F0A8
:1021A000B1FF012084F8460084F83E0084F83F0027
:1021B00084F8400084F8410084F8420084F8430029
:1021C00084F8440084F8450084F83D00002010BDE8
:1021D0007047704710B50446022249B104290ED059
:1021E000082913D094F84100012816D0012010BD11
:1021F00094F83E000128F9D184F83E200FE094F8CD
:102200003F000128F2D184F83F2008E094F8400014
:102210000128EBD184F8402001E084F8412001221C
:10222000206800F0D7FF16492068164A884201D07E
:10223000904203D1436C43F40043436420688842D6
:1022400013D0B0F1804F10D00F4988420DD00F4904
:1022500088420AD00E49884207D0904205D00D49E5
:10226000884202D00C49884204D1816801F00701FC
:10227000062903D0016841F001010160002010BD72
:10228000000001400004014000040040000800403C
:10229000000C0040004001400018004030B50446EA
:1022A0000D460068002200F095FF194B41F2111114
:1022B00020688A10984202D0164B984209D1036ACE
:1022C0000B4206D1036A134203D1436C23F400434B
:1022D00043642068036A0B4206D1016A114203D1AC
:1022E000016821F00101016001203DB1042D08D0F9
:1022F000082D09D084F84100002030BD84F83E004C
:10230000FAE784F83F00F7E784F84000F4E70000BC
:10231000000001400004014010B50446FEF73AFBFE
:102320002046BDE81040FEF751B90246002041B1F9
:10233000042909D008290AD00C2901D11068006CA1
:1023400070471068406B70471068806B704710686A
:10235000C06B7047704770B5040004D094F841001A
:10236000002510B106E0012070BD84F840502046E1
:1023700000F024F8242084F841002068C16821F48A
:102380000051C160204601F077F82068016921F40E
:10239000904101612068416921F02A014161206872
:1023A000C16841F40051C1606564202084F8410097
:1023B00084F842006563002070BD000010B586B04F
:1023C000044614216846FDF745FF134920688842FA
:1023D00020D112480021026842F4003202600068F5
:1023E00000F4003005900D481038026842F00802F1
:1023F0000260006800F00800059060200090022054
:10240000CDE90101032003900720049069460448A8
:10241000FEF724FD06B010BD0044004040380240E5
:10242000000C02402DE9F843044690F8410098461C
:1024300016460D46202802D00220BDE8F88385B15B
:102440007EB100206064212084F84100FEF704FE84
:10245000A6848146E684A0682027B0F5805F02D07C
:1024600003E00120E9E7206910B12E4600250EE0C7
:1024700000260CE08021204601F084F8A8B9C6B1FE
:1024800016F8010B21684860E08C401EE084E08C67
:102490004B464FF00002CDF800800028EAD14FF003
:1024A0004001204601F06EF840B184F841700320ED
:1024B000C3E735F8020BC0F30800E3E784F8417086
:1024C0000020BAE7FEE701684A69D24352050FD4FB
:1024D0006FF480624A61002140F8301F202242736D
:1024E0008173026942F004020261017301207047A6
:1024F000002070472DE9F84F0446006889460B9D7F
:1025000001689846174641F48061016020680168BF
:1025100041F48071016000954FF0011B0022594683
:1025200020460A9B00F0E4F84FF4007A40B120689E
:102530000068C00501D5C4F840A00320BDE8F88FAD
:10254000216809F0FE0008612B46284920460A9AB6
:1025500000F016F9F0BB20684169806900902A46B6
:1025600020460A9900F0A2F940B1206C04283AD123
:102570002068016841F40071016034E0FEB2B8F1F6
:10258000010F09D02168380A08612A4620460A99B5
:1025900000F08CF90028E8D1206806612A46204620
:1025A0000A9900F083F90028DFD12068016841F41E
:1025B0008071016000950022594620460A9B00F078
:1025C00097F80028B3D1216809F0FF0040F001001E
:1025D000086100E007E02B46044920460A9A00F013
:1025E000CFF80028AAD00120A8E7000002000100CF
:1025F0002DE9F843044600680D46DDE908970168B7
:102600009846164641F4807101604B4600224FF017
:1026100001112046009700F06BF848B1206800686F
:10262000C00502D54FF4007020640320BDE8F88394
:10263000216805F0FE0008613B464A4615492046E0
:1026400000F09EF888B920684169806900903A4698
:102650004946204600F02AF948B1206C042804D1EC
:102660002068016841F4007101600120DEE7F5B2E5
:10267000B8F1010F09D02168300A08613A4649468D
:10268000204600F013F90028E7D1206805610020FA
:10269000CCE700000200010070B516460D46044666
:1026A0001EE02046FFF70FFF08B1012070BD681C37
:1026B00016D0FEF7D1FC801BA84200D885B920684F
:1026C0004069C04340070BD5002044F8300F20215B
:1026D0006173A073216941F0200121612073E4E757
:1026E00020684069C0434007DBD4002070BD000073
:1026F0002DE9F047984617460D460446C1F30746B4
:10270000DDF820902AE000BFB8F1FF3F26D0FEF7A9
:10271000A3FCA0EB0901414502D8B8F1000F1DD17F
:102720002068012E16D0806925EA00000004000C04
:1027300012D00020B84211D1002044F8300F2021DF
:102740006173A073216941F0200121612073012090
:10275000BDE8F0874069E7E70120EBE72068012E3C
:102760000AD0806925EA00000004000C06D0002091
:10277000B842C9D00020EBE74069F3E70120F7E752
:102780002DE9F047984616460D4604464FF00009DD
:102790004FF0200AC1F3074723E020684069C04397
:1027A000400515D42068016841F40071016021687A
:1027B0006FF480604861C4F8309084F83DA084F8DC
:1027C0003E90216C41F00401216484F83C9021E0AA
:1027D000701C06D0FEF740FCA0EB0800B04203D806
:1027E00016B1012F1FD021E02068012F15D080697C
:1027F00025EA00000004000C18D000BF44F8309F08
:1028000084F80DA084F80E90216941F02001216127
:1028100084F80C900120BDE8F087406925EA0000AB
:102820000004000CEAD12068406901E0206880695A
:1028300025EA00000004000CAFD1ECE72DE9F041DF
:10284000002590460E460446202728E04069C043F4
:10285000C0060CD454F8301B6FF01000486144F8E7
:1028600010596777A577206A2062257714E0FEF774
:10287000F3FBA0EB0800B04200D886B9206840699D
:10288000C04340060BD544F8305F6773A5732069D9
:1028900040F02000206125730120BDE8F081206810
:1028A0004169C9434906D1D40020F6E770B5164600
:1028B0000D4604461EE02046FFF705FE08B1012044
:1028C00070BD681C16D0FEF7C7FB801BA84200D85D
:1028D00085B920684069C04300060BD5002044F844
:1028E000300F20216173A073216941F02001216123
:1028F0002073E4E720684069C0430006DBD4002071
:1029000070BD90ED050A704790ED030A7047000016
:1029100010B501600271C38080ED020A9FED0A0AC2
:10292000044680ED030A80ED040A80ED050A44F2B6
:102930002752002100F054F8E2882046BDE81040FC
:10294000052100F04DB80000000000001FB50A4648
:10295000002103916424022303A98DE81A00017960
:1029600000680123FEF742FC10B1002004B010BD46
:10297000BDF80C0040BAF9E710B504460221FFF794
:10298000E5FF00EE100ADFED150A0421B8EE400A5B
:10299000204620EE200A84ED030AFFF7D7FF00B29D
:1029A00000EE100AD4ED020A0321B8EEC00A204658
:1029B00020EE200A84ED040AFFF7C8FF00EE100A9B
:1029C000D4ED020AB3EE091AB8EE400A60EE810AAD
:1029D000002020EE200A84ED050A10BD0AD7A33A94
:1029E0001FB5130A8DF80C308DF80D2064240223D6
:1029F00003AA8DE81C0004790A46006801232146D9
:102A0000FEF7F6FC1FBD000030B52F488DB0002545
:102A1000016841F480710160006800F480700090EA
:102A200029481438016841F4800101600068284C8D
:102A300000F4800000902548C4E900050015A56059
:102A4000C4E90350400060618000A0614011C4E906
:102A5000070520466562FEF74DF9A4F148001D49BF
:102A60008463A06301604FF48031C0E90115012146
:102A70000161017680F82050174AC0E90A25082232
:102A8000C560C26180F830104561FEF75CF80195C1
:102A900007200295CDE903052022104905A8FDF77E
:102AA000C0FB00240DF1140501A955F82400019084
:102AB000601C029006484838FDF79CFF641C082CF7
:102AC000F2DB0DB030BD000044380240106402401B
:102AD0008C010020002001400100000F6838000830
:102AE0002DE9F04F87B014216846FDF7B3FB674826
:102AF0000024016841F004010160016801F0040153
:102B00000591016841F080010160016801F08001D8
:102B10000591016841F001010160016801F00101C6
:102B20000591016841F002010160016801F00201B4
:102B30000591016841F008010160016801F0080198
:102B40000591016841F0100101600068032700F061
:102B500010000590FF20CDE90007DFF834B1694689
:102B600002945846FEF77AF9FD02012229464948A7
:102B7000FEF76CFA01260095CDE9016469464548E7
:102B80000394FEF76BF9DFF810A14FF470450022B3
:102B900029465046FEF75AFA0095CDE90164694688
:102BA00050460394FEF75AF9DFF8F09000224021D6
:102BB0004846FEF74BFA40200090CDE90164694693
:102BC00048460394FEF74AF902253002CDE9000594
:102BD000CDE90245694648460495FEF73FF92020B5
:102BE000CDE90005CDE90245694650460495FEF75A
:102BF00035F91020CDE90005CDE90245694650467A
:102C00000495FEF72BF94FF08008CDF80080CDE950
:102C10000156CDE9035769464846FEF71FF90022E1
:102C200008215046FEF712FA08200090CDE9016411
:102C3000694650460394FEF711F9A803CDE9000553
:102C400002AA694682E870005846FEF707F900229A
:102C500080211048FEF7FAF9CDF80080CDE9016433
:102C600069460C480394FEF7F9F87D0300222946D3
:102C70000848FEF7EBF90095CDE90164694605487F
:102C80000394FEF7EBF807B0BDE8F08F3038024050
:102C900000000240000C0240000402400008024014
:102CA0000D4810B50B4901600C49416000214FF4FB
:102CB00080428160C0E9031241618161C1610162AA
:102CC000FEF7D0F9002803D0BDE81040FDF70DBD98
:102CD00010BD00000054004034020020A086010016
:102CE0000D4810B50B4901600C49416000214FF4BB
:102CF00080428160C0E9031241618161C16101626A
:102D0000FEF7B0F9002803D0BDE81040FDF7EDBC98
:102D100010BD00000058004088020020A08601007D
:102D20000D4810B50B4901600C49416000214FF47A
:102D300080428160C0E9031241618161C161016229
:102D4000FEF790F9002803D0BDE81040FDF7CDBC98
:102D500010BD0000005C0040DC020020A0860100E5
:102D600010B5164888B00024016841F001010160E7
:102D700000684FF0804100F00100079010480160AA
:102D80005321C0E9011440F2E731C0E90314802166
:102D90008161FFF7F0F91C216846FDF75BFA6020BE
:102DA000009040F2F31001900294049400226946CE
:102DB0000348FFF77AF908B010BD00004038024020
:102DC0006C00002030B521488DB00024016841F02E
:102DD0000201016000681E4900F002000B901D48CE
:102DE000312502C0532132C0802140F81049816151
:102DF0001848FFF7C0F91C216846FDF72BFA602040
:102E0000009004940220CDE9015004226946114843
:102E1000FFF74BF90294082269460E480194FFF728
:102E200044F90120CDE908040F200A9007940022FC
:102E300007A90848FEF759FF002201211D20FEF7CF
:102E400063FC1D20FEF752FC0DB030BD403802403F
:102E500000040040B400002010B51B4886B00024D8
:102E6000016841F0020101600068184900F00200A9
:102E7000049017480160A721C0E901144FF6FF71C3
:102E8000C0E903148021C0E90541FEF7C0FF01201D
:102E90000094CDE901040F200390042269460C48F8
:102EA000FEF723FF002201212C20FEF72DFC2C2011
:102EB000FEF71CFC002201212E20FEF725FC2E200F
:102EC000FEF714FC06B010BD443802400004014077
:102ED000FC0000200C4810B50A4901604FF4E131B4
:102EE0004160002181600C22C160C0E9041281614F
:102EF000C161FFF730FA002803D0BDE81040FDF7AC
:102F0000F4BB10BD0044004030030020FEE7FEE7A4
:102F10007047000008B1012200E000224FF4004198
:102F20000148FEF793B800000004024010B5642089
:102F3000FDF782FF124C012251032046FEF786F86E
:102F40004FF4FA70FDF778FF012291032046FEF757
:102F50007DF8C820FDF770FF0022A1142046FEF77F
:102F600075F83220FDF768FF00224FF4004120463B
:102F7000FEF76CF8BDE810403220FDF75DBF0000A1
:102F80000004024070470000082801D30020704769
:102F9000014931F8100070477803002001490860AA
:102FA000704700003800002030B59FED1C0AB0F5D6
:102FB0002F7F32D9B0F52B6F2FD20021184C0A2366
:102FC000CA18521C02EBD272521034F812508542C9
:102FD00001D8114600E0531E9942F1DB01F12E02A7
:102FE00000EE102A34F8112004EB4101F8EEC00A7B
:102FF000498800EE102A01EE101A01EE900AB8EE90
:10300000400AB8EE411AF8EE611A31EE401A71EE3C
:10301000C01A81EE810A30EE200A30BD0000C07F68
:10302000883800080348082201490068FDF7B6BD4A
:103030007803002038000020FEF7FEBA30B593B0C8
:1030400030216846FDF706F914210CA8FDF702F9B6
:103050001D480025016841F080510160006800F0C2
:10306000805011901948016841F480410160006866
:10307000022400F48040119001200090000401908F
:103080008001CDE9064008AA0420A82182E81300A7
:103090000B906846FEF754FC08B172B6FEE70CA927
:1030A0000F2081E831004FF4A0500F904FF4805072
:1030B000109005210CA8FEF759FB002801D072B62C
:1030C000FEE713B030BD0000403802400070004001
:1030D0000248016841F470010160704788ED00E02A
:1030E0000148FEF749BF0000B40000200148FEF788
:1030F00043BF0000FC0000200148FEF73DBF000078
:10310000FC000020F0B50268274B284D284E294FBF
:10311000294C4FF0804C984209D0604507D0A84216
:1031200005D0B04203D0B84201D0A04204D122F071
:10313000700E4A6842EA0E0298421BD0604519D0D0
:10314000A84217D0B04215D0B84213D0A04211D037
:103150001A4DA8420ED01A4DA8420BD0194DA842C4
:1031600008D0194DA84205D0184DA84202D0184DDC
:10317000A84203D122F44075CA682A434D6922F05F
:1031800080022A438D68C5620D688562984201D02D
:10319000A04201D109690163016841F004010160A5
:1031A000012141610260F0BD0000014000040040C7
:1031B00000080040000C00400004014000400140B5
:1031C000004401400048014000180040001C00403D
:1031D0000020004010B501F01F030121046A99404E
:1031E0008C430462016A9A401143016210BD0000E1
:1031F000F0B5036A026A22F0010202624268846941
:10320000124E24F073050C682C4323F002058B68E2
:103210002B430D4DA84201D0B04205D123F0080741
:10322000CB683B4323F00403A84201D0B04205D150
:103230004D6922F4407215438A692A4342608461D1
:10324000496841630362F0BD000001400004014091
:10325000F0B5026A036A23F01003036243688469CD
:103260000D6824F4E64444EA05248D6822F0200227
:1032700042EA05120F4D104EA84201D0B04206D1CD
:10328000CF6822F0800242EA071222F04002A842F0
:1032900001D0B04207D14D6923F4406343EA85036E
:1032A0008D6943EA850343608461496881630262F2
:1032B000F0BD00000000014000040140F0B5026ACA
:1032C000036A23F4807303624368C46922F40072C2
:1032D00024F073050C68124E2C438D6842EA0522D7
:1032E0000E4DA84201D0B04206D1CF6822F4006250
:1032F00042EA072222F48062A84201D0B04207D1FC
:103300004D6923F4405343EA05138D6943EA0513DD
:103310004360C4614968C1630262F0BD00000140BE
:103320000004014030B5046A026A22F4805202624D
:103330004268C3690D6823F4E64343EA05238D68B8
:1033400024F4005444EA0534084DA84202D0084D44
:10335000A84204D14D6922F4804242EA85124260BB
:10336000C36149680164046230BD0000000001408F
:103370000004014070B5056A046A24F00104046287
:103380008469154EB04214D0B0F1804F11D0134E65
:10339000B0420ED0124EB0420BD0124EB04208D006
:1033A000114EB04205D0114EB04202D0104EB04284
:1033B00003D124F00304144301E044F001041A078C
:1033C00024F0F00444EA126225F00A0301F00A0135
:1033D00019438261016270BD000001400004004099
:1033E00000080040000C0040000401400040014083
:1033F0000018004030B5046A056A25F01005056222
:10340000856925F4407545EA022222F470454FF69D
:10341000FF7202EA033224F0A0032A43A02404EA44
:10342000011119438261016230BD01680C3151E81C
:10343000002F22F4907241E80023002BF5D101689F
:10344000143151E8002F22F0010241E80023002B43
:10345000F5D1016B012909D101680C3151E8002F28
:1034600022F0100241E80023002BF5D1202180F842
:10347000421000210163704770B50446006801697D
:10348000E26821F44051114301612169A068E269B9
:1034900008436169114308432168CA6849F20C6313
:1034A0009A430243CA6020684169A26921F44071CD
:1034B0001143416131492068884202D03049884235
:1034C00002D1FEF7FDF901E0FEF7EAF9E269002317
:1034D000192164253226B2F5004F626828D0A0FB7E
:1034E0000101930F9200FCF76BFE0146B0FBF5F073
:1034F0006FF01802504301EB800006EB0010B0FBA8
:10350000F5F000F0F002B1FBF5F002EB0012B1FBB8
:10351000F5F06FF01803584301EB800006EB001044
:10352000B0FBF5F000F00F0021681044886070BD1A
:10353000A0FB010192185B41FCF742FE0146B0FB83
:10354000F5F00201B1FBF5F06FF01803584301EB01
:10355000800006EBC000B0FBF5F000F0F80002EBD5
:103560004002B1FBF5F0584301EB800006EBC000D0
:10357000B0FBF5F000F00700D6E7000000100140B6
:10358000001401402DE9F843984617460D460446BD
:10359000089E24E0701C22D0FDF75EFDA0EB080021
:1035A000B0421AD8CEB12068C168490717D5802D1E
:1035B00015D0402D13D00168C94309070FD4016805
:1035C0000025406800902046FFF72FFF0820606428
:1035D00084F840500120BDE8F8830320FBE7206811
:1035E000006835EA000004D00020B842D2D00020A4
:1035F000F1E70120F9E7FDF7D7B8FEE70907090E63
:10360000002804DB00F1E02080F80014704700F08F
:103610000F0000F1E02080F8141D704702E008C898
:10362000121F08C1002AFAD170477047002001E03C
:1036300001C1121F002AFBD1704700002DED048B41
:1036400084B0FEF701F8FFF7F9FCFFF749FAFFF73E
:1036500087FBFFF7B7FBFFF7FFFBFFF7D5F9FFF796
:103660003FFBFFF71DFBFFF75BFBFFF733FC9FED15
:103670006E0A4FF4007388226C496D48FFF748F9D1
:103680009FED6C8A6A4840F255341830B0EE480A13
:103690002346882268498146FFF73AF96448B0EE2C
:1036A000480A30302346882264498046FFF730F9C3
:1036B0005F48A838FFF772FC5D49F039A1F1480076
:1036C000FDF756F95E48FCF771FF5D484838FCF796
:1036D000DBFE5C48FDF710F8FFF728FCFFF7A2FCC3
:1036E000FCF7D8FE524E584C0025002707EB470048
:1036F00006EBC000FFF740F97F1C032FF6DBFDF758
:103700001DF8FCF7F5FF0746C07800B3FD70B878E8
:10371000F0B10120FDF722F96420FDF751F90120F5
:10372000FFF7F8FB38786E21404200EB800001EB98
:103730004000C7B2642F01D9642702E00A2F00D2EB
:103740000A270020FCF75AFF3846FCF761FF0EE01D
:103750000020FDF703F90020FDF732F90020FFF704
:10376000D9FB0020FCF754FF0120FCF747FF20782D
:10377000401CC0B22070022850D325700320FFF7F0
:1037800003FCFFF711FC0720FFF7FEFBFFF70CFC23
:10379000F0EE408A4846FFF7B7F8B0EE408A484658
:1037A000FFF7AFF8B0EE409A4046FFF7ADF8F2EE03
:1037B0000E0A9FED261A70EE600A80EE810ADFED98
:1037C000240A20EE200ABDEEC00A10EE100A00B254
:1037D000642801DD642002E0002800DA0020B2EE57
:1037E000040A68EE000A28EE800AFDEEE00ABDEE4B
:1037F000C00A10EE901AFCEEC90AADF800108DF860
:10380000020010EE900AADF8040010EE100A8DF8D8
:103810000650ADF808006846FDF732F84FF4FA702C
:10382000FDF70AFB61E7000017B7D138340200202A
:10383000EC01002052499D3A88020020DC02002061
:10384000B40000203003002000000020CCCC1C413C
:103850000000C8420A460146024814238068FEF769
:10386000E1BD000040000020000000000100000059
:10387000020000000300000004000000050000003A
:1038800006000000070000003C03F903B4046A05C9
:103890001D06CD0678072008C5086609030A9C0A9C
:1038A00088018801B80188010B02EE0188018801B6
:1038B000B80188014B020B028801880110039302B2
:1038C0000B02EE01B801BA02BA0293020B024B02DC
:1038D0000B022C016400C800C800C80090012C0134
:1038E0006400C800C800C80090012C016400C80032
:1038F000C800C800C80090012C016400C800C800BE
:10390000C80090011003DC031704000097041003A3
:1039100070030000DC037003170410038C00C80060
:1039200004016400820096005E01C800B4008C00AF
:10393000C800A401000610160006101600000000C2
:10394000000000000102030406070809000000004F
:103950000102030474390008000000206C0000001C
:103960001C360008E03900086C000020FC0700004D
:103970002C360008000000000000000000000000DD
:103980000000000000000000000000000000000037
:103990000000000000000000000000000000000027
:1039A0000000000000000000000000000000000017
:1039B0000000000000000000000000000000000007
:1039C00000000000000000000000000000000000F7
:1039D0000100000010000000000000000024F400BE
:040000050800018965
:00000001FF
