:020000040800F2
:10000000580700209D010008B72F00089925000817
:10001000B52F000825090008773600080000000009
:10002000000000000000000000000000B5300008E3
:10003000CD09000800000000B92F0008B730000803
:10004000B7010008B7010008B7010008B7010008B0
:10005000B7010008B7010008B7010008B7010008A0
:10006000B7010008B7010008B7010008B701000890
:10007000B7010008B7010008B7010008B701000880
:10008000B7010008B7010008B7010008B701000870
:10009000B7010008B7010008B7010008B701000860
:1000A000B7010008B7010008B7010008B701000850
:1000B000B701000861310008B7010008B701000866
:1000C000B7010008B7010008B7010008B701000830
:1000D000B7010008B7010008B7010008B701000820
:1000E000B7010008B7010008B7010008B701000810
:1000F00079310008B70100086D310008B701000828
:10010000B7010008B7010008B7010008B7010008EF
:10011000B7010008B7010008B7010008B7010008DF
:10012000B7010008B7010008B7010008B7010008CF
:10013000B7010008B7010008B7010008B7010008BF
:10014000B7010008B7010008B7010008B7010008AF
:10015000B7010008B7010008B7010008B70100089F
:10016000B7010008B7010008B7010008B70100088F
:10017000B7010008B7010008B7010008000000003F
:10018000B7010008B7010008DFF80CD000F06EFAE4
:1001900000480047A53F0008580700200648804750
:1001A00006480047FEE7FEE7FEE7FEE7FEE7FEE75C
:1001B000FEE7FEE7FEE7FEE751310008890100088F
:1001C0002DE9F05F0546002092469B46884606468C
:1001D000814640241BE0284641464746224600F01F
:1001E0007CF853465A46C01A914110D3114618461E
:1001F000224600F063F82D1A67EB01084F462246AD
:100200000120002100F05AF817EB00094E41201E92
:10021000A4F10104DFDC484631462A464346BDE8E6
:10022000F09F40EA01039B0703D009E008C9121FB1
:1002300008C0042AFAD203E011F8013B00F8013BA0
:10024000521EF9D27047D2B201E000F8012B491ECC
:10025000FBD270470022F6E710B513460A46044663
:100260001946FFF7F0FF204610BD00F0004230F0C5
:1002700000400AD0C10D01F56071C0F3160042EADA
:100280000151C208400711437047002001467047E2
:1002900030B50B46014600202022012409E021FA56
:1002A00002F59D4205D303FA02F5491B04FA02F553
:1002B0002844151EA2F10102F1DC30BD202A04DB26
:1002C000203A00FA02F1002070479140C2F1200369
:1002D00020FA03F3194390407047202A04DB203AA8
:1002E00021FA02F00021704721FA02F3D040C2F156
:1002F000200291400843194670472DE9FE4F804681
:1003000081EA0300C00F0C46009021F0004123F069
:100310000045B8EB0200A94105D24046214690466F
:100320001C460B46024623F00040104347D0270DE1
:10033000C7F30A00C3F30A510290401A0190402803
:100340006BDAC3F3130040F4801B0098924620B18F
:100350000023D2EB030A63EB0B0B01985946C0F163
:1003600040025046FFF7AAFF06460D465046594642
:10037000019A00F08DF910EB08006141002487EA32
:10038000115284EAE7731A4340D0009A62B3019A8B
:10039000012A4FEA075215DC001B61EB02014FF006
:1003A000004202EA0752CDE90042001C41F58011EB
:1003B00032462B4600F08DF903B0BDE8F08F404681
:1003C0002146F9E7001B61EB0201001C41F5801397
:1003D00000185B412018A2F5001747EB030140EA23
:1003E000D570B6196D4111E06D084FEA360645EA41
:1003F000C0754FEA0752001B61EB0201001C41F57A
:10040000801149084FEA30000019514132462B460D
:1004100003B0BDE8F04F00F04DB900980122400054
:100420000023D0EB020263EBE073009821464FEA11
:10043000E074B8EB000061EB0401E9E783F00043EE
:100440005BE781F0004158E72DE9FE4F81EA0304A4
:1004500004F0004421F0004100944FF0000B23F021
:10046000004350EA01045ED052EA03045BD0C3F3B8
:100470000A54C1F30A552C44A4F2F3340194A0FBAE
:100480000254C1F3130141F48011C3F3130343F485
:10049000801301FB024400FB034E840A970A44EADE
:1004A000815447EA8357A4FB076802958D0A05FB30
:1004B00007854FEA932C04FB0C542705029D4FEA55
:1004C000065847EA1637B5EB08056EEB070C870EA2
:1004D000920E47EA811742EA8312A7FB0201B6EBAC
:1004E0000B0164EB00042B0D43EA0C335E1844EB64
:1004F0001C50DA465146E7FB0201C5F313044FEAEC
:100500000B3343EA14534FEA0432019C43EA0603D7
:10051000A4F10C040294009CCDE900B400F0D9F8D9
:1005200003B0BDE8F08F00200146F9E72DE9F04D5A
:1005300081EA030404F0004B21F0004514464FF01B
:10054000000A23F0004150EA050220D054EA0102DB
:100550001DD0C5F30A570246C5F31303C1F31300B8
:10056000C1F30A5640F4801543F48013A7EB060844
:10057000101BD64608F2FD3873EB050002D308F1D4
:10058000010801E092185B41B8F1000F03DA002086
:100590000146BDE8F08D00204FF4801106468446E8
:1005A0000EE0171B73EB050705D3121B63EB050366
:1005B00006434CEA010C49084FEA300092185B41AF
:1005C00050EA0107EDD152EA030012D082EA04009A
:1005D00083EA0501084305D0101BAB4106D2012276
:1005E000002306E000224FF0004302E06FF001021A
:1005F00053101AEB06004CEB085110EB0A0041EBCC
:100600000B01BDE8F04D00F055B8C1F30A52C1F33B
:10061000130140F2FF3341F480119A4202DA0020C4
:100620000146704740F233439A42A2F2334202DC61
:100630005242FFF752BEFFF741BE000030B5041E24
:1006400071F1000404DB4FF00044404264EB01010F
:10065000141E73F1000405DB1C464FF000435242A8
:1006600063EB0403994208BF904230BD064C074D2E
:1006700006E0E06840F0010394E807009847103472
:10068000AC42F6D3FFF784FD9C450008BC4500084A
:10069000202A06DBCB17203A41FA02F043EAE07346
:1006A00006E041FA02F3D040C2F120029140084333
:1006B0001946704710B5141E73F1000408DA401C87
:1006C00041F1000192185B411A4301D120F0010071
:1006D00010BD2DE9F04D92469B4611B1B1FA81F261
:1006E00002E0B0FA80F220329046FFF7E7FD0446C0
:1006F0000F4640EA0A0041EA0B0153465A460843B6
:1007000013D0114653EA010019D0C8F140025046F7
:10071000FFF7E3FD05460E46504659464246FFF7B1
:10072000CDFD084305D0012004E020463946BDE850
:10073000F08D0020054346EAE0762C4337430A98C3
:100740006305E40AA0EB08000022FD0A44EA4754CE
:100750000A3002D500200146E9E701051019694178
:10076000DDE9084500196941BDE8F04DA2E710B583
:100770000146806B026C12F0500F05D0026CD2065D
:1007800026D500F0CFF910BD016C41F40071016471
:1007900001688A6812F0405F17D1027EAAB9CA6A5E
:1007A00012F4700F02D08A6852050ED44A6822F003
:1007B00020024A60016C21F480710164016CC9045B
:1007C00003D4016C41F00101016400F0A9F910BDEE
:1007D000806BC26CBDE810400846104710B5806BB6
:1007E00040210164416C41F00401416400F09AF938
:1007F00010BD10B5806B00F094F910BD464910B5DE
:100800004A6822F440324A604A6843681A434A60A0
:1008100001684A6822F480724A6001684A68036984
:1008200042EA03224A6001684A6822F040724A6044
:1008300001684A6883681A434A6001688A6822F43A
:1008400000628A6001688A68C3681A438A60816AA4
:100850006FF07062D14201688A6822F070628A602B
:1008600001688A680CD0836A1A438A6001688A68C2
:1008700022F040528A6001688A68C36A1A4301E024
:1008800022F040528A6001688A6822F002028A607F
:1008900001688A68037E42EA43028A6090F8201069
:1008A000002901684A680FD042F400624A6001687A
:1008B0004A6822F460424A6001684A68174C436AF9
:1008C00004EB43331A4301E022F400624A600168FA
:1008D000CA6A22F47002CA620168CA6A838B104C29
:1008E00004EB03531A43CA6201688A6822F4007257
:1008F0008A6001688A6890F8303042EA43228A6050
:1009000001688A6822F480628A6001688A684069A6
:1009100042EA8020886010BD0023014000E0FFFF14
:100920000000F0FFFEE7000001681823CAB2103A89
:10093000B2FBF3F2054B6FF30901032A9B5CC3651D
:1009400000D9091D81650846704700007C450008F4
:1009500010B5014600208B698A6A4FF0C07453B10C
:10096000B3F5005F15D072B1012A0CD0022A0AD06B
:10097000032A09D104E01AB1012A06D0022A03D1C0
:10098000C96AC90100D5012010BDC96AA142FAD0C7
:1009900010BD002AF7D0012AF2D0022AF3D0032A90
:1009A000F3D010BD30B50468256825F48025256096
:1009B000046863608368402B036803D09960006813
:1009C000C26030BD9A600068C16030BD704772B6C9
:1009D000FEE7000078B50024009490F83C20012A3E
:1009E00019D0012280F83C200A6807230568092AEB
:1009F00013D9EE680A3A02EB420293409E43EE603E
:100A00000B788A680A3B03EB43039A400368DD686E
:100A10002A43DA6010E0022078BD2E6902EB420220
:100A200093409E432E610B788A6803EB43039A4000
:100A300003681D692A431A614A681F23072A13D2D3
:100A400005686E6B521E02EB820293409E436E63FA
:100A50000B790A885B1E92B203EB83039A4003680A
:100A60005D6B2A435A6327E005680D2A12D22E6B6C
:100A7000D21F02EB820293409E432E630B790A88B9
:100A8000DB1F92B203EB83039A4003681D6B2A437A
:100A90001A6311E0EE6A0D3A02EB820293409E4324
:100AA000EE620B790A880D3B92B203EB83039A4006
:100AB0000368DD6A2A43DA62164B0568144A9D42D0
:100AC00006D10D68122D03D1556845F48005556097
:100AD00005689D4218D10B68102B01D0112B13D142
:100AE000536843F400035360096810290CD10A4984
:100AF0000A4A0968B1FBF2F101EB8101490000E00B
:100B0000491E00910029FBD180F83C40002078BDAF
:100B100000230140002001407C00002040420F00E3
:100B200070477047704770B504004FF0000503D060
:100B3000206C002610B107E0012070BD204600F0B7
:100B40001CF8666484F83C60206CC00610D4206CED
:100B500020F4885040F0020020642046FFF74EFE4B
:100B60006664206C20F0020040F00100206400E088
:100B7000012584F83C60284670BD7047F8B50E46E4
:100B800000210446009190F83C0013460A460128D3
:100B900007D0012084F83C0020688568ED0702D06A
:100BA00011E00220F8BD856845F0010585604048E8
:100BB000404D0068B0FBF5F000EB400000E0401E47
:100BC00000900028FBD120688568ED0503D5856875
:100BD00025F48075856020688568ED075DD0226CFE
:100BE00040F20165AA4342F48072226440684005E5
:100BF00005D5206C20F4005040F480502064206C17
:100C0000C00404D5606C20F00600606400E06164FC
:100C100084F83C10A16B2948274DC863A16B284874
:100C20000864A16B2748C86421686FF0220008603F
:100C30002068416841F0806141602068816841F42A
:100C400080718160216832464C31A06B00F0ACF8B5
:100C5000024668681C49C006206806D0884224D134
:100C6000816811F0405F13D01FE08842F8D0174B25
:100C7000984203D1D1F80433DB06F1D0144B9842EB
:100C800013D1D1F8041301F01F011029E8D30CE0AF
:100C9000816841F08041816007E0206C40F01000E5
:100CA0002064606C40F0010060641046F8BD0000F4
:100CB0007C00002040420F00002301406F07000825
:100CC000F3070008DD070008002001400021014073
:100CD000002201402DE9F041044600F0ADF906463E
:100CE0005CB1022084F83500002584F83450206877
:100CF000016821F0010101600DE00120BDE8F081F3
:100D000000F09AF9801B052805D920206065032092
:100D100084F83500F2E720680068C007F0D1226847
:100D2000116820480140D4E901031843D4E903368F
:100D30003343184363691843A3691843E3691843AD
:100D4000236A18430843616A042903D1D4E90B13C9
:100D500019430843106020684069666A20F0070163
:100D600030460E43012704280CD1A06A0643E06AEE
:100D700040B12046FFF7ECFD20B14020606584F8CB
:100D80003570BAE7206846612046FFF7CDFD94F83C
:100D90005C203F2191408160656584F835700020BA
:100DA000ACE700003F8010F02DE9F0410446866D6D
:100DB00090F83400002501280DD0012084F834007B
:100DC00094F835700020012F07D084F834000225F4
:100DD0002846BDE8F0810220FBE7022784F8357041
:100DE00060652046FFF7DEFD94F85C103F208840E8
:100DF000B0602068016841F016010160206C20B1EC
:100E00002068016841F0080101602068016841F034
:100E100001010160DCE7000070B5044600F00CF948
:100E20000546601C02D004480078044400F004F930
:100E3000401BA042FAD370BD700000202DE9F84F8E
:100E4000DFF8BCA10022012503264FF00F090AF1AB
:100E5000040BAAF1040E00BF0B6805FA02F423404C
:100E6000A34270D10F7907F00307012F01D0022FA1
:100E700016D187684FEA420806FA08FC27EA0C07F1
:100E8000D1F80CC00CFA08FC4CEA070CC0F808C0FA
:100E90004768A7430C79C4F3001494403C43446072
:100EA0000C79E443A4070AD0C4684FEA420C06FA5E
:100EB0000CF7BC438F6807FA0CF72743C7600C791F
:100EC00004F00304022C12D1D40800EB840CDCF8EB
:100ED00020405707FF0E09FA07F824EA0804D1F862
:100EE000108008FA07F848EA0408CCF82080046863
:100EF0004FEA420C06FA0CF7BC430F7907F00307E0
:100F000007FA0CF7274307604C6814F4403F70D091
:100F10003C4C276847F480472760246822F0030789
:100F200004F480440094384C07EB040CDCF80848C7
:100F300097074FEA177809FA08F7BC43334FB842CE
:100F400002D1002724E054E0314FB84201D10127FB
:100F50001EE0304FB84201D1022719E02E4FB842AF
:100F600001D1032714E02D4FB84201D104270FE02F
:100F70002B4FB84201D105270AE02A4FB84201D1D0
:100F8000062705E0284FB84201D1072700E00827CF
:100F900007FA08F72743CCF80878DAF800405746F4
:100FA000D1F804C09C435FEACC2C00D51C433C60C4
:100FB000DBF800405F46D1F804C09C435FEA8C2C0C
:100FC00000D51C433C60DEF800407746D1F804C0F1
:100FD0009C435FEA8C3C00D51C433C60084F083FB3
:100FE0003C68D1F804C09C435FEACC3C00D51C436C
:100FF0003C60521C102AFFF42FAFBDE8F88F0000B0
:10100000083C0140443802400030014000000240EA
:101010000004024000080240000C024000100240A0
:101020000014024000180240001C02400AB1816115
:1010300070470904FBE70000014880687047000022
:101040007000002070B5040025D094F83D00002504
:1010500020B984F83C50204600F052FA242084F84D
:101060003D002068016821F00101016020680168ED
:1010700041F4004101602068016821F400410160F1
:1010800000F0FEFB4D4A6168914201D84C4900E0F6
:101090004C49884201D2012070BD4B492368B0FB06
:1010A000F1F15E6826F03F060E435E60636893428E
:1010B00006D94FF4967359434FF47A73B1FBF3F1A9
:1010C0002368491C1E6A26F03F0631431962616895
:1010D000914210D84900401EB0FBF1F2521CC2F3FD
:1010E0000B02042A01D2042022E0B0FBF1F0401CE4
:1010F000C0F30B001CE0A268F2B301EBC10303EBE9
:101100000116431EB3FBF6F35B1C43F480431B053F
:1011100049D092B301EBC10202EB0111401EB0FBBA
:10112000F1F0401CC0F30B0040F4804040F400405C
:101130002168CA694CF6FF739A431043C861D4E929
:10114000071001432068026822F0C00211430160C9
:10115000D4E9030101432068826848F2FF339A43CF
:1011600011438160D4E9050108432168CA6822F06F
:10117000FF021043C86001E00EE016E0206801683D
:1011800041F0010101602564202084F83D002563C1
:1011900084F83E50002070BD01EB4106431EB3FBB6
:1011A000F6F35B1CB3E70120C2E701EB4101401EEF
:1011B000B0FBF1F0401CC0F30B00B7E7A0860100C4
:1011C00080841E0000093D0040420F002DE9FF4FC2
:1011D00083B09A46DDE9118793460446DDF84090D6
:1011E000FFF72AFF054694F83D00202870D1192307
:1011F000012274492046009501F0E4FA0028F5D157
:1012000094F83C00012863D0012084F83C00206859
:101210000168C90703D1016841F00101016020683C
:10122000016821F400610160222084F83D00402023
:1012300084F83E0000262664C4F82490A4F82A808E
:10124000608D20856048E062CDE9007553465A46BE
:101250002046049901F0B8F9002879D1208DD0B149
:10126000012821D00228206824D04169806900909B
:10127000208D032866D801282BD0544902283B46EC
:101280004FF00002009557D08846204601F09AFAA8
:1012900000285DD13AE020684169816900910168C8
:1012A00041F4007101607DE02068016821F48061F3
:1012B0000160F0E7016821F4806101602068016845
:1012C00041F400610160206841698069009069E033
:1012D00075E02A463946204601F01AFB88BB54E0E7
:1012E0002068016841F40071016020680069616A4A
:1012F0000870606A401C6062218D491E2185618DE5
:10130000491E618521680969017042E02068016811
:1013100021F48061016020680069616A0870606A78
:10132000401C6062208D401E2085608D401E6085BF
:101330003B46002241460095204601F043FA00B9A1
:10134000CEE705E02A463946204601F0E1FA18B119
:10135000012007B0BDE8F08F20680069616A08705D
:10136000606A401C6062208D401E81B22185608DC4
:10137000401E608520684269D243520712D4032977
:1013800003D1016821F48061016020680069616A0D
:101390000870606A401C6062208D401E2085608D50
:1013A000401E6085208D00287FF462AF202084F8E5
:1013B0003D0084F83E6084F83C600020C9E70220CC
:1013C000C7E70000020010000000FFFF040001005A
:1013D0002DE9FF4F83B09A46DDE911979346044605
:1013E000DDF84080FFF728FE054694F83D002028F0
:1013F0007FD11923012240492046009501F0E2F9EE
:10140000002876D194F83C00012872D0012084F89D
:101410003C0020680168C90703D1016841F001015F
:1014200001602068016821F400610160212084F8D6
:101430003D00402084F83E0000262664C4F8248045
:10144000A4F82A90608D20852C48E062CDE90075D3
:1014500053465A462046049901F034F970B930E0F9
:101460002A463946204601F08BFA58B1206C0428F0
:1014700004D12068016841F400710160012007B0C7
:10148000BDE8F08F606A216800780861606A401CDE
:101490006062218D491E89B22185628D521E62854E
:1014A00022685369DB435B070BD469B10078106194
:1014B000606A401C6062208D401E2085608D401E49
:1014C0006085208D0028CBD12A463946204601F080
:1014D0004DF90028CAD154F83D0B016841F4007160
:1014E0000160202004F81E09E67766770020C6E731
:1014F000FFE70220C3E70000020010000000FFFF2A
:101500002DE9F04186B0044614216846FEF7A2FE9C
:1015100023683B4CDFF8E4C000223949122503263A
:10152000042738481034634518D10B6843F0020390
:101530000B60096802AB01F002010591C021CDE901
:10154000001583E8C4006946FFF778FC206840F482
:1015500000102060206800F400101CE0DFF8A8C034
:1015600063451CD10B6843F002030B60096802ABB2
:1015700001F0020105914FF44061CDE9001583E8C7
:10158000C4006946FFF75AFC206840F480002060E0
:10159000206800F48000059006B0BDE8F0811B488B
:1015A0008342F9D10868904640F00400086008685A
:1015B00000F004000590086840F001000860086829
:1015C000694600F00100059058158DE8210110488A
:1015D000CDE90367FFF732FC4FF480708DE82101FD
:1015E00069460C48CDE90367FFF728FC206840F402
:1015F00000002060206800F40000CCE700540040A8
:10160000303802400004024000580040005C0040B6
:10161000000802400000024002488168027811443C
:1016200081607047700000200B4810B5016841F4DC
:1016300000710160016841F480610160016841F45A
:1016400080710160032000F06FF80F2000F006F8B1
:1016500000F024F8002010BD003C024070B50D4D94
:1016600004464FF47A712878B1FBF0F00A49096812
:10167000B1FBF0F000F00AFB48B9102C07D20022B1
:101680002146501E00F030F800206C6070BD012033
:1016900070BD0000700000207C0000200A4808B5E2
:1016A000016841F480410160006800F480400090CE
:1016B0000548001F016841F080510160006800F09A
:1016C0008050009008BD000044380240002809DB2B
:1016D00000F01F02012191404009800000F1E0204C
:1016E000C0F8001170470000F0B40E4B1B680C46A8
:1016F000C3F30223C3F10705042D00D90425191DE6
:10170000072901D2002300E0DB1E012606FA05F1BD
:10171000491E214099409E40761E16403143F0BC40
:1017200001F0BABF0CED00E0064900F007020868BE
:101730004FF6FF03184040EA0220034A10430860B6
:10174000704700000CED00E00000FA052DE9F047BD
:101750000E46050065D0DFF81481D8F80000F7B216
:1017600000F00700B04207D288F80070D8F80000F7
:1017700000F00700B04254D128683D4C810712D5D3
:10178000400703D5206840F4E05020602878000727
:1017900003D5206840F4604020602068A96820F0EC
:1017A000F000084320602878C0072DD030496868D1
:1017B0000839012812D0022813D0032811D0096853
:1017C000890700292DDA216821F0030101432160F6
:1017D000FFF732FC814641F2883A0EE0096889033E
:1017E000EFE709688901ECE7FFF726FCA0EB0901A8
:1017F000514502D90320BDE8F0872068696800F0F0
:101800000C00B0EB810FEFD1D8F80010404601F08A
:101810000701B14207D90770006800F00700B04225
:1018200001D00120E7E72878400705D52068E9685E
:1018300020F4E050084320602878000706D520688F
:10184000296920F4604040EAC100206000F038F8C7
:101850002168084AC1F30311515CC8400649086079
:1018600006480068FFF7FAFE0020C4E7003C02408B
:1018700008380240844500087C00002074000020E5
:101880000448054900680968044AC1F38221515C93
:10189000C84070477C00002008380240944500088A
:1018A0000448054900680968044AC1F34231515CA3
:1018B000C84070477C00002008380240944500086A
:1018C000154810B5006810F00C02144813D04110F0
:1018D000042A0FD0082A0ED10F4C241F2268236837
:1018E00002F03F025B0207D52068C0F38810A0FB1E
:1018F000010106E0084610BD2168C1F38811A1FB73
:1019000000010023FEF75CFC2168C1F30141491C82
:101910004900B0FBF1F010BD083802400024F4008B
:101920002DE9F84F04006ED02078DFF84C93C00703
:10193000A9F104054AD009F104000168C1F381014D
:10194000012908D00068C0F3810002280AD1D9F823
:101950000000400206D52868800337D5606800285B
:10196000E1D033E06068B0F5803F10D0B0F5A02F33
:10197000286810D020F480302860286820F4802067
:1019800028606068A8B1FFF757FB06460DE028689D
:1019900040F48030F4E740F480202860F7E700BF8F
:1019A000FFF74AFB801B642873D828688003F7D5AB
:1019B0000CE0FFF741FB064605E000BFFFF73CFBEC
:1019C000801B6428F0D828688003F7D42078DFF8DB
:1019D000AC8280074FF0000A3ED5A748001D016881
:1019E00011F00C0F08D00068C0F3810002280BD161
:1019F000D9F80000400207D42868800716D5E068AF
:101A0000012800D112E033E1E068B8B10120C8F844
:101A10000000FFF711FB064605E000BFFFF70CFBD7
:101A2000801B0228C0D828688007F7D5286821695C
:101A300020F0F80040EAC10028600DE0C8F800A0DE
:101A4000FFF7FAFA064604E0FFF7F6FA801B0228D1
:101A50001FD828688007F7D42078000722D5864F42
:101A600087486169703771B101210160FFF7E4FABD
:101A7000064604E0FFF7E0FA801B022809D8386820
:101A80008007F7D50EE0C0F800A0FFF7D5FA0646AC
:101A900005E082E0FFF7D0FA801B02287DD8386885
:101AA0008007F7D42078400768D5DFF8CCB100274D
:101AB0000BF13C0BDBF80000C0000BD4DBF800108E
:101AC00041F08051CBF80010DBF80000012700F056
:101AD000805000906B4E3068C00510D4306840F4E0
:101AE00080703060FFF7A8FA009005E0FFF7A4FAD5
:101AF0000099401A022850D83068C005F6D55E4ECD
:101B0000A0686C3601280FD00528306810D020F06E
:101B100001003060306820F004003060A068B8B187
:101B2000FFF78AFA00900FE0306840F00100F4E718
:101B300040F004003060F7E7FFF77EFA0099411AA1
:101B400041F28830814266D830688007F4D50EE0D3
:101B5000FFF772FA009007E0FFF76EFA0099411A5A
:101B600041F28830814256D830688007F4D42FB1D2
:101B7000DBF8001021F08051CBF80010A069C8B349
:101B80003D49091D0968C1F3810102294AD0022893
:101B9000504607D0C8F8600000E03CE0FFF74CFA80
:101BA00004463BE04746C8F86000FFF745FA0646A2
:101BB00005E000BFFFF740FA801B02282BD82868F9
:101BC0008001F7D4D4E907010843A16A2E4A4908E5
:101BD00002EB0141626A41EA8211084394F82C1039
:101BE00040EA0161C9F8001001203866FFF724FAC5
:101BF000044606E03EE000BFFFF71EFA001B022885
:101C000009D828688001F7D534E000BFFFF714FA3F
:101C1000001B022802D90320BDE8F88F2868800144
:101C2000F4D427E00128F7D0D9F80000E26900F4E5
:101C3000800191421CD1226A00F03F01914217D1EC
:101C400047F6C071626A0140B1EB821F10D1A26AEF
:101C50004FF0FF3300F4403103EB5202B1EB024F7F
:101C600006D194F82C1000F07060B0EB016F01D039
:101C70000120D1E70020CFE70438024000004742AE
:101C8000800E4742007000400000FFFF10B5401E6C
:101C9000B0F1807F01D3012010BD4FF0E0246061DE
:101CA0000F21601701F0F8FC0020A06107202061DF
:101CB000002010BD704770472DE9F0412D4A0168A2
:101CC000002501272C4E2D4C914202D1027F012A82
:101CD00026D02B4A914221D1017F02291ED1617861
:101CE00000294FF004013FD000F08AFBA061A069F9
:101CF00061698842A0696169A0EB0100E16900EBBC
:101D0000014001D200F5803038B1B6FBF0F0411E41
:101D1000B1F57A7F00D3002020626570BDE8F081C4
:101D2000217800294FF0000118D000F069FBA06075
:101D3000A06861688842A0686168A0EB0100E16862
:101D400001EBC10202EB011100EB410000D2323085
:101D500010B1B6FBF0F020612570DFE700F050FB1A
:101D60006060E5602770D9E700F04AFB6061E561DB
:101D70006770D3E70004004040420F0000000020DD
:101D8000000401402DE9F041054690F83C00002692
:101D90000C46012810D0012085F83C0072B1042ABD
:101DA0001CD0082A2CD00C2A50D00126002085F8FF
:101DB0003C003046BDE8F0810220FBE7D4E9001288
:101DC000E368286801F016FB2868816921F00C019E
:101DD000816128688169A26811430FE0D4E900128B
:101DE000E368286801F046FB2868816921F44061B6
:101DF000816128688169A26841EA02218161D5E791
:101E00002868D4E9002C277B036A016A21F48071D9
:101E10000162C16923F4206321F0030141EA0C014E
:101E200021F0F00C39074FF420674CEA116107EA02
:101E300002221A43C16102622868C16921F00C01C3
:101E4000C1612868C169A26811432BE02868D4E900
:101E50000021E768036AD0F820C02CF4805CC0F849
:101E600020C0D0F81CC023F420432CF4407C4CEA62
:101E7000012121F4704C4FF6FF7101EA07314FF454
:101E8000204741EA0C0107EA02321A43C1610262AB
:101E90002868C16921F44061C1612868C169A268EC
:101EA00041EA0221C16181E710B5040003D094F832
:101EB0003D0010B107E0012010BD002084F83C0077
:101EC000204600F01EF8022084F83D00211D206805
:101ED00001F058F9012084F8460084F83E0084F8A7
:101EE0003F0084F8400084F8410084F8420084F800
:101EF000430084F8440084F8450084F83D00002045
:101F000010BD704730B50446002551B104290DD0ED
:101F1000082910D094F8410094F84520012811D1E7
:101F20000EE094F83E0094F84220F7E794F83F0062
:101F300094F84320F2E794F8400094F84420EDE749
:101F4000012A01D0012030BD022059B1042912D04C
:101F5000082919D084F8410084F845000C2944D0A0
:101F6000012540E084F83E0084F842002068C26801
:101F700042F0020210E084F83F0084F84300206839
:101F8000C26842F0040207E084F8400084F844008C
:101F90002068C26842F00802C2600122206801F095
:101FA00059F914492068884214D0B0F1804F11D0FB
:101FB000114988420ED0114988420BD010498842FD
:101FC00008D01049884205D00F49884202D00F49F5
:101FD000884204D1816801F00701062903D0016815
:101FE00041F001010160284630BD2068C26842F01E
:101FF0001002D1E70000014000040040000800404A
:10200000000C004000040140004001400018004066
:102010002DE9F04104460068C66805694FF00007E5
:10202000A90713D5B10711D5F91E01610120207749
:10203000206880698007204602D0FFF73DFE04E05B
:1020400000F07EF8204600F010F92777680716D5D3
:10205000700714D521686FF0040008610220207712
:102060002068806910F4407F204602D0FFF724FEEC
:1020700004E000F065F8204600F0F7F8277728071D
:1020800015D5300713D521686FF0080008610420CA
:1020900020772068C0698007204602D0FFF70CFE39
:1020A00004E000F04DF8204600F0DFF82777E8065E
:1020B00016D5F00614D521686FF0100008610820CD
:1020C00020772068C06910F4407F204602D0FFF7D7
:1020D000F3FD04E000F034F8204600F0C6F827775E
:1020E000E80708D0F00706D021686FF0010008610A
:1020F000204600F05DF9280608D5300606D521688F
:102100006FF0800008612046FFF7D4FD680608D50F
:10211000700606D521686FF040000861204600F087
:1021200084F9A8060AD5B00608D521686FF020000A
:1021300008612046BDE8F041FFF7BDBDBDE8F08174
:10214000704770B5044690F83C0000260D46012803
:102150000FD0012084F83C006AB1042A1DD0082A5F
:102160002FD00C2A3FD00126002084F83C003046B6
:1021700070BD022070BD206801F07AF82068816986
:1021800041F0080181612068816921F004018161C9
:10219000206881692A69114311E0206801F098F8EC
:1021A0002068816941F4006181612068816921F4BE
:1021B00080618161206881692A6941EA0221816127
:1021C000D2E7206801F0BAF82068C16941F008013F
:1021D000C1612068C16921F00401C1612068C16941
:1021E0002A69114311E0206801F0DCF82068C16918
:1021F00041F40061C1612068C16921F48061C1615D
:102200002068C1692A6941EA0221C161ACE710B5C1
:10221000040003D094F83D0010B107E0012010BD88
:10222000002084F83C00204600F01EF8022084F8CC
:102230003D00211D206800F0A5FF012084F8460024
:1022400084F83E0084F83F0084F8400084F84100A0
:1022500084F8420084F8430084F8440084F8450080
:1022600084F83D00002010BD7047704710B504464B
:10227000022249B104290ED0082913D094F8410054
:10228000012816D0012010BD94F83E000128F9D194
:1022900084F83E200FE094F83F000128F2D184F842
:1022A0003F2008E094F840000128EBD184F840205A
:1022B00001E084F841200122206800F0CBFF16499C
:1022C0002068164A884201D0904203D1436C43F4FF
:1022D000004343642068884213D0B0F1804F10D08F
:1022E0000F4988420DD00F4988420AD00E498842D2
:1022F00007D0904205D00D49884202D00C4988424F
:1023000004D1816801F00701062903D0016841F07A
:1023100001010160002010BD0000014000040140E7
:102320000004004000080040000C00400040014054
:102330000018004030B504460D460068002200F049
:1023400089FF194B41F2111120688A10984202D07E
:10235000164B984209D1036A0B4206D1036A134215
:1023600003D1436C23F4004343642068036A0B42A7
:1023700006D1016A114203D1016821F00101016017
:1023800001203DB1042D08D0082D09D084F841006A
:10239000002030BD84F83E00FAE784F83F00F7E7FC
:1023A00084F84000F4E70000000001400004014010
:1023B000104B0268002110489A420CD10278012A81
:1023C00008D1C268521CC260C268B2F57A7F01D9D6
:1023D000016101707047094B9A42FBD14278012A92
:1023E000F8D1C269521CC261C269642AF2D9016281
:1023F00041707047000400400000002000040140CC
:102400000246002041B1042909D008290AD00C292C
:1024100001D11068006C70471068406B70471068FD
:10242000806B70471068C06B7047704770B50400D0
:1024300004D094F84100002510B106E0012070BDE1
:1024400084F84050204600F023F8242084F841000E
:102450002068C16821F40051C160204601F04CF8A9
:102460002068016921F4904101612068416921F0EF
:102470002A0141612068C16841F40051C16065646E
:10248000202084F8410084F842006563002070BD7C
:1024900010B586B0044614216846FDF7DBFE1349EB
:1024A0002068884220D112480021026842F400329C
:1024B0000260006800F4003005900D481038026892
:1024C00042F008020260006800F0080005906020F9
:1024D00000900220CDE90101032003900720049021
:1024E00069460448FEF7AAFC06B010BD004400404F
:1024F00040380240000C02402DE9F843044690F8B1
:102500004100984616460D46202802D00220BDE81C
:10251000F88385B17EB100206064212084F84100F9
:10252000FEF78AFDA6848146E684A0682027B0F5E0
:10253000805F02D003E00120E9E7206910B12E4658
:1025400000250EE000260CE08021204601F05AF81C
:10255000A8B9C6B116F8010B21684860E08C401E8E
:10256000E084E08C4B464FF00002CDF8008000285C
:10257000EAD14FF04001204601F044F840B184F820
:1025800041700320C3E735F8020BC0F30800E3E70E
:1025900084F841700020BAE7FEE701684A69D24337
:1025A00052050FD46FF480624A61002140F8301F59
:1025B000202242738173026942F0040202610173B6
:1025C00001207047002070472DE9F84F044600684D
:1025D00089460B9D01689846174641F48061016069
:1025E0002068016841F48071016000954FF0011B83
:1025F0000022594620460A9B00F0E4F84FF4007A86
:1026000040B120680068C00501D5C4F840A003208F
:10261000BDE8F88F216809F0FE0008612B462849C3
:1026200020460A9A00F016F9F0BB206841698069DB
:1026300000902A4620460A9900F0A2F940B1206C89
:1026400004283AD12068016841F40071016034E047
:10265000FEB2B8F1010F09D02168380A08612A4694
:1026600020460A9900F08CF90028E8D1206806611C
:102670002A4620460A9900F083F90028DFD1206815
:10268000016841F48071016000950022594620469E
:102690000A9B00F097F80028B3D1216809F0FF00E9
:1026A00040F00100086100E007E02B4604492046A5
:1026B0000A9A00F0CFF80028AAD00120A8E700006D
:1026C000020001002DE9F843044600680D46DDE9EB
:1026D000089701689846164641F4807101604B46A0
:1026E00000224FF001112046009700F06BF848B12E
:1026F00020680068C00502D54FF4007020640320F4
:10270000BDE8F883216805F0FE0008613B464A46B3
:102710001549204600F09EF888B920684169806913
:1027200000903A464946204600F02AF948B1206C0C
:10273000042804D12068016841F40071016001207F
:10274000DEE7F5B2B8F1010F09D02168300A08615F
:102750003A464946204600F013F90028E7D12068A0
:1027600005610020CCE700000200010070B51646AC
:102770000D4604461EE02046FFF70FFF08B101207A
:1027800070BD681C16D0FEF757FC801BA84200D80D
:1027900085B920684069C04340070BD5002044F844
:1027A000300F20216173A073216941F02001216164
:1027B0002073E4E720684069C0434007DBD4002071
:1027C00070BD00002DE9F047984617460D460446B7
:1027D000C1F30746DDF820902AE000BFB8F1FF3FC3
:1027E00026D0FEF729FCA0EB0901414502D8B8F13B
:1027F000000F1DD12068012E16D0806925EA000047
:102800000004000C12D00020B84211D1002044F87E
:10281000300F20216173A073216941F020012161F3
:1028200020730120BDE8F0874069E7E70120EBE76E
:102830002068012E0AD0806925EA00000004000CFF
:1028400006D00020B842C9D00020EBE74069F3E78A
:102850000120F7E72DE9F047984616460D46044655
:102860004FF000094FF0200AC1F3074723E020682A
:102870004069C043400515D42068016841F40071E7
:10288000016021686FF480604861C4F8309084F87A
:102890003DA084F83E90216C41F00401216484F84D
:1028A0003C9021E0701C06D0FEF7C6FBA0EB0800B0
:1028B000B04203D816B1012F1FD021E02068012FAC
:1028C00015D0806925EA00000004000C18D000BF74
:1028D00044F8309F84F80DA084F80E90216941F0EF
:1028E0002001216184F80C900120BDE8F087406947
:1028F00025EA00000004000CEAD12068406901E0EC
:102900002068806925EA00000004000CAFD1ECE7E4
:102910002DE9F041002590460E460446202728E088
:102920004069C043C0060CD454F8301B6FF010004F
:10293000486144F810596777A577206A20622577A7
:1029400014E0FEF779FBA0EB0800B04200D886B98E
:1029500020684069C04340060BD544F8305F677378
:10296000A573206940F02000206125730120BDE897
:10297000F08120684169C9434906D1D40020F6E7B7
:1029800070B516460D4604461EE02046FFF705FECC
:1029900008B1012070BD681C16D0FEF74DFB801BEE
:1029A000A84200D885B920684069C04300060BD50D
:1029B000002044F8300F20216173A073216941F099
:1029C000200121612073E4E720684069C0430006CC
:1029D000DBD4002070BD10B5044644F2275200211C
:1029E00000F050F8E2882046BDE81040052100F0D4
:1029F00049B81FB50A466424022303A98DE81A00CA
:102A0000818800680123FEF7E1FB10B1002004B0CB
:102A100010BDBDF80C0040BAF9E7000010B504463F
:102A20000221FFF7E6FF00EE100ADFED150A042190
:102A3000B8EE400A204620EE200A84ED030AFFF794
:102A4000D8FF00B200EE100AD4ED020A0321B8EE5E
:102A5000C00A204620EE800A84ED040AFFF7C9FF71
:102A600000EE100AD4ED020AB3EE091AB8EE400ADD
:102A700060EE810A20EE200A84ED050A10BD0000F8
:102A80000AD7A33A1FB5130A8DF80C308DF80D2024
:102A90006424022303AA8DE81C0084880A46006887
:102AA00001232146FEF794FC1FBD000030B52F48DE
:102AB0008DB00025016841F480710160006800F468
:102AC0008070009029481438016841F48001016049
:102AD0000068284C00F4800000902548C4E90005F7
:102AE0000015A560C4E90350400060618000A0614A
:102AF0004011C4E9070520466562FEF7EBF8A4F132
:102B000048001D498463A06301604FF48031C0E92F
:102B1000011501210161017680F82050174AC0E9B2
:102B20000A250822C560C26180F830104561FDF7B2
:102B3000FAFF019507200295CDE9030520221049EF
:102B400005A8FDF76EFB00240DF1140501A955F849
:102B500024000190601C029006484838FDF73AFFB7
:102B6000641C082CF2DB0DB030BD0000443802407C
:102B700010640240A4010020002001400100000F69
:102B8000444500082DE9F04F87B014216846FDF751
:102B900061FB67480024016841F00401016001689D
:102BA00001F004010591016841F0800101600168B4
:102BB00001F080010591016841F0010101600168A7
:102BC00001F001010591016841F002010160016815
:102BD00001F002010591016841F0080101600168FE
:102BE00001F008010591016841F0100101600068E1
:102BF000032700F010000590FF20CDE90007DFF863
:102C000034B1694602945846FEF718F9FD020122D4
:102C100029464948FEF70AFA01260095CDE90164E4
:102C2000694645480394FEF709F9DFF810A14FF40F
:102C30007045002229465046FEF7F8F90095CDE987
:102C40000164694650460394FEF7F8F8DFF8F09007
:102C5000002240214846FEF7E9F940200090CDE9E6
:102C60000164694648460394FEF7E8F802253002FD
:102C7000CDE90005CDE90245694648460495FEF7D1
:102C8000DDF82020CDE90005CDE902456946504632
:102C90000495FEF7D3F81020CDE90005CDE90245F3
:102CA000694650460495FEF7C9F84FF08008CDF804
:102CB0000080CDE90156CDE9035769464846FEF745
:102CC000BDF8002208215046FEF7B0F90820009018
:102CD000CDE90164694650460394FEF7AFF8A803B6
:102CE000CDE9000502AA694682E870005846FEF761
:102CF000A5F8002280211048FEF798F9CDF8008051
:102D0000CDE9016469460C480394FEF797F87D030A
:102D1000002229460848FEF789F90095CDE90164AB
:102D2000694605480394FEF789F807B0BDE8F08FBF
:102D30003038024000000240000C02400004024013
:102D4000000802400D4810B50B4901600C49416074
:102D500000214FF480428160C0E90312416181612A
:102D6000C1610162FEF76EF9002803D0BDE8104092
:102D7000FDF72DBE10BD00000054004014020020DD
:102D8000A08601000D4810B50B4901600C49416057
:102D900000214FF480428160C0E9031241618161EA
:102DA000C1610162FEF74EF9002803D0BDE8104072
:102DB000FDF70DBE10BD0000005800406802002065
:102DC000A08601000D4810B50B4901600C49416017
:102DD00000214FF480428160C0E9031241618161AA
:102DE000C1610162FEF72EF9002803D0BDE8104052
:102DF000FDF7EDBD10BD0000005C0040BC020020EE
:102E0000A086010010B5164888B00024016841F082
:102E10000101016000684FF0804100F0010007905F
:102E2000104801605321C0E9011440F2E731C0E9C4
:102E3000031480218161FFF7EAF91C216846FDF740
:102E400009FA6020009040F2F3100190029404947B
:102E5000002269460348FFF774F908B010BD00006E
:102E6000403802408400002010B522488CB0002475
:102E7000016841F00201016000681F4900F0020092
:102E80000B901E4801605321C0E901143121C0E9B3
:102E9000031480218161FFF7BAF91C216846FDF710
:102EA000D9F96020009004940220CDE90140042269
:102EB00069461248FFF745F91920CDE901040822B7
:102EC00069460E48FFF73DF90120CDE908040F20BF
:102ED0000A900794002207A90848FEF753FF002232
:102EE00001211D20FEF700FC1D20FEF7EFFB0CB0BA
:102EF00010BD00004038024000040040CC0000201B
:102F000010B51B4886B00024016841F00201016041
:102F10000068184900F00200049017480160A721DA
:102F2000C0E901144FF6FF71C0E903148021C0E924
:102F30000541FEF7B9FF01200094CDE901040F20FF
:102F40000390042269460C48FEF71CFF0022012171
:102F50002C20FEF7C9FB2C20FEF7B8FB0022012134
:102F60002E20FEF7C1FB2E20FEF7B0FB06B010BDF1
:102F70004438024000040140140100200C4810B500
:102F80000A4901604FF4E1314160002181600C2267
:102F9000C160C0E904128161C161FFF747FA0028EE
:102FA00003D0BDE81040FDF712BD10BD0044004045
:102FB00010030020FEE7FEE7704700002DE9F04710
:102FC000384FDFF8E4A0394E394D002407F10C08E2
:102FD0004FF4C04937F81400A0B1012249465046C9
:102FE000FEF724F837F814002968B6FBF0F0401E0D
:102FF000C862E86029684008486300212C48FFF750
:1030000035F908E0002249465046FEF70FF8002146
:103010002748FFF78FF938F81400FDF7FDFE641C10
:10302000062CD7D300212248FFF784F90022C84696
:10303000494657465046FDF7F9FF6420FDF7ECFE80
:10304000C246DFF86080B946A8F12C08002408F1D8
:103050000607012251464846FDF7E8FF38F81400FC
:103060002968B6FBF0F0401EC862E8602968400895
:10307000486300210E48FFF7F9F837F81400FDF710
:10308000CBFE00210A48FFF755F91E20FDF7C4FECC
:10309000641C032CDDD351464846BDE8F0470122AD
:1030A000FDF7C4BF64450008000C024040420F0019
:1030B000840000207047FEF7AFBA000030B593B02F
:1030C00030216846FDF7C6F814210CA8FDF7C2F8B8
:1030D0001D480025016841F080510160006800F042
:1030E000805011901948016841F4804101600068E6
:1030F000022400F48040119001200090000401900F
:103100008001CDE9064008AA0420A82182E8130026
:103110000B906846FEF704FC08B172B6FEE70CA9F6
:103120000F2081E831004FF4A0500F904FF48050F1
:10313000109005210CA8FEF709FB002801D072B6FB
:10314000FEE713B030BD0000403802400070004080
:103150000248016841F470010160704788ED00E0A9
:103160000148FEF755BF0000CC0000200148FEF7E3
:103170004FBF0000140100200148FEF749BF0000C6
:1031800014010020F0B50268274B284D284E294F26
:10319000294C4FF0804C984209D0604507D0A84296
:1031A00005D0B04203D0B84201D0A04204D122F0F1
:1031B000700E4A6842EA0E0298421BD0604519D050
:1031C000A84217D0B04215D0B84213D0A04211D0B7
:1031D0001A4DA8420ED01A4DA8420BD0194DA84244
:1031E00008D0194DA84205D0184DA84202D0184D5C
:1031F000A84203D122F44075CA682A434D6922F0DF
:1032000080022A438D68C5620D688562984201D0AC
:10321000A04201D109690163016841F00401016024
:10322000012141610260F0BD000001400004004046
:1032300000080040000C0040000401400040014034
:10324000004401400048014000180040001C0040BC
:103250000020004010B501F01F030121046A9940CD
:103260008C430462016A9A401143016210BD000060
:10327000F0B5036A026A22F00102026242688469C0
:10328000124E24F073050C682C4323F002058B6862
:103290002B430D4DA84201D0B04205D123F00807C1
:1032A000CB683B4323F00403A84201D0B04205D1D0
:1032B0004D6922F4407215438A692A434260846151
:1032C000496841630362F0BD000001400004014011
:1032D000F0B5026A036A23F010030362436884694D
:1032E0000D6824F4E64444EA05248D6822F02002A7
:1032F00042EA05120F4D104EA84201D0B04206D14D
:10330000CF6822F0800242EA071222F04002A8426F
:1033100001D0B04207D14D6923F4406343EA8503ED
:103320008D6943EA85034360846149688163026271
:10333000F0BD00000000014000040140F0B5026A49
:10334000036A23F4807303624368C46922F4007241
:1033500024F073050C68124E2C438D6842EA052256
:103360000E4DA84201D0B04206D1CF6822F40062CF
:1033700042EA072222F48062A84201D0B04207D17B
:103380004D6923F4405343EA05138D6943EA05135D
:103390004360C4614968C1630262F0BD000001403E
:1033A0000004014030B5046A026A22F480520262CD
:1033B0004268C3690D6823F4E64343EA05238D6838
:1033C00024F4005444EA0534084DA84202D0084DC4
:1033D000A84204D14D6922F4804242EA851242603B
:1033E000C36149680164046230BD0000000001400F
:1033F0000004014070B5056A046A24F00104046207
:103400008469154EB04214D0B0F1804F11D0134EE4
:10341000B0420ED0124EB0420BD0124EB04208D085
:10342000114EB04205D0114EB04202D0104EB04203
:1034300003D124F00304144301E044F001041A070B
:1034400024F0F00444EA126225F00A0301F00A01B4
:1034500019438261016270BD000001400004004018
:1034600000080040000C0040000401400040014002
:103470000018004030B5046A056A25F010050562A1
:10348000856925F4407545EA022222F470454FF61D
:10349000FF7202EA033224F0A0032A43A02404EAC4
:1034A000011119438261016230BD01680C3151E89C
:1034B000002F22F4907241E80023002BF5D101681F
:1034C000143151E8002F22F0010241E80023002BC3
:1034D000F5D1016B012909D101680C3151E8002FA8
:1034E00022F0100241E80023002BF5D1202180F8C2
:1034F000421000210163704770B5044600680169FD
:10350000E26821F44051114301612169A068E26938
:1035100008436169114308432168CA6849F20C6392
:103520009A430243CA6020684169A26921F440714C
:103530001143416131492068884202D030498842B4
:1035400002D1FEF7ADF901E0FEF79AF9E269002336
:10355000192164253226B2F5004F626828D0A0FBFD
:103560000101930F9200FCF72BFE0146B0FBF5F032
:103570006FF01802504301EB800006EB0010B0FB27
:10358000F5F000F0F002B1FBF5F002EB0012B1FB38
:10359000F5F06FF01803584301EB800006EB0010C4
:1035A000B0FBF5F000F00F0021681044886070BD9A
:1035B000A0FB010192185B41FCF702FE0146B0FB43
:1035C000F5F00201B1FBF5F06FF01803584301EB81
:1035D000800006EBC000B0FBF5F000F0F80002EB55
:1035E0004002B1FBF5F0584301EB800006EBC00050
:1035F000B0FBF5F000F00700D6E700000010014036
:10360000001401402DE9F843984617460D4604463C
:10361000089E24E0701C22D0FDF70EFDA0EB0800F0
:10362000B0421AD8CEB12068C168490717D5802D9D
:1036300015D0402D13D00168C94309070FD4016884
:103640000025406800902046FFF72FFF08206064A7
:1036500084F840500120BDE8F8830320FBE7206890
:10366000006835EA000004D00020B842D2D0002023
:10367000F1E70120F9E7FEE70FB4054B10B503A908
:10368000044A029800F0EAF810BC5DF814FB000050
:103690008D3F0008800000200907090E002804DB88
:1036A00000F1E02080F80014704700F00F0000F1F6
:1036B000E02080F8141D704702E008C8121F08C1FE
:1036C000002AFAD170477047002001E001C1121FA3
:1036D000002AFBD1704700002DE9FF5F82B0002176
:1036E000DDE90430020DDDF840B0034318D044F6A4
:1036F0001050A2F2FF3242431514119801281FD036
:10370000A5EB0B00401C5FEA000A4FF000064E4F8D
:10371000DFF83891B046504615D5CAF1000413E0E1
:10372000119801244AA3012801D16FEA0B010298E4
:10373000119AC0E90031C0E9024206B0BDE8F09F2D
:10374000CBF10000DFE704460021404A491842EB74
:103750000450CDE9001012E0E00707D032463B46A6
:1037600040464946FCF770FE8046894632463B4655
:1037700010461946FCF768FE06460F466410002CFA
:10378000EAD1DDE90401DDE90023BAF1000F06DA30
:10379000FCF75AFE42464B46FCF756FE05E0FCF7A6
:1037A000C5FE42464B46FCF7C1FE04460E460022CB
:1037B000284BFCF743FF03D84FF0FF30014607E0EA
:1037C0000022254B20463146FCF797FDFCF71DFFF4
:1037D000102409E0002C0ADB0A220023FCF7F0FC8D
:1037E000039B30321A55641E50EA0102F2D1641C68
:1037F000039AC4F111031444119A012A03D001223F
:1038000008430DD10AE0084304D000204FF0110B0B
:10381000119072E7A3EB0B056D1E0DE05B4504DD17
:103820004FF0000205F1010504E003DA4FF0000259
:10383000A5F10105002AECD002981199C0E90231E6
:10384000C0E9004579E70000000014400000F03FA7
:10385000300000000000F0430000E03F2DE9FF4F82
:1038600095B09B468946064600250FE2252877D16C
:1038700000242746F84A0121059400E0044316F885
:10388000013F203B01FA03F01042F7D130782A289B
:1038900011D06FF02F033078A0F13002092A16D82A
:1038A000059A44F0020402EB820203EB4202104448
:1038B000761C0590EFE759F8042B0592002A03DAED
:1038C000504244F40054059044F00204761C3078D1
:1038D0002E2816D116F8010F44F004042A280DD022
:1038E0006FF02F023078A0F13003092B09D807EBD5
:1038F000870302EB4303C718761CF3E759F8047BF0
:10390000761C30786C280FD006DC4C2817D068283D
:103910000DD06A2814D104E0742810D07A280FD171
:103920000DE044F400140AE044F4801401E044F48F
:1039300040147278824202D104F58014761C761C01
:10394000307866280BD013DC582877D009DC0028A3
:1039500075D04528F6D04628F4D047281AD19DE1E5
:1039600018E0632835D0642879D0652812D195E114
:10397000702873D008DC6728F1D069286FD06E28D2
:103980000DD06F2806D1B5E073282CD0752875D0DE
:10399000782874D05A46179990476D1C75E1C4F386
:1039A0000250022809D003280DD0D9F800100428AD
:1039B0000DD00D6009F1040967E1D9F80010EA178C
:1039C000C1E90052F6E7D9F800100D80F2E70D705A
:1039D000F0E719F8041B8DF8001000208DF80100A5
:1039E000EA46012003E059F804AB4FF0FF306107CD
:1039F0004FF0000102D40DE008F101018846B94200
:103A00000FDA8045F8DB1AF808100029F4D108E035
:103A100008F1010188468142FADB1AF808100029F2
:103A2000F6D105985B46A0EB080721463846179A61
:103A300000F094FA284400EB080507E04DE029E186
:103A40000DE01AF8010B5A4617999047B8F1010892
:103A5000F7D25B4621463846179A13E142E00A2224
:103A60000092C4F302524FF0000A022A08D059F81B
:103A700004CB032A4FEAEC710AD00DE029E02AE0DA
:103A800009F1070121F00702F2E802C1914609E0BD
:103A90000FFA8CFC4FEAEC71042A03D14FFA8CFC2C
:103AA0004FEAEC71002907DA0A460021DCF1000C2C
:103AB00061EB02012D2202E0220504D52B228DF8B4
:103AC0000420012203E0E20701D02022F7E790461C
:103AD00059E00A2102E010220DE010214FF0000A07
:103AE00000910BE010224FF0000A44F00404082774
:103AF000009203E008224FF0000A0092C4F3025241
:103B0000022A05D059F804CB0021032A08D009E085
:103B100009F1070121F00702F2E802C1914605E030
:103B20001FFA8CFC042A01D10CF0FF0C4FF00008A6
:103B3000220728D5702806D0009B83F0100353EA93
:103B40000A0305D00EE040228DF80420012208E08F
:103B50005CEA010206D030228DF804208DF80500C1
:103B600002229046009B83F0080353EA0A030AD11D
:103B70005CEA010201D1620705D530228DF80420EC
:103B80004FF001087F1E582804D034A003900EA8DF
:103B900002900DE036A0F9E753466046009AFCF724
:103BA0000FFB84460398825C0298401E02900270CC
:103BB0005CEA0100F0D1029806A9081A00F1200A77
:103BC000600702D524F4803400E00127574502DD68
:103BD000A7EB0A0000E0002000EB0A010090059826
:103BE0004144401A0590E00306D45B462146179AEB
:103BF000059800F0B3F90544002706E001A85A46ED
:103C0000C05D179990476D1C7F1C4745F6DBE003AC
:103C10000CD55B462146179A059800F09FF905449C
:103C200004E030205A46179990476D1C0099481EB1
:103C300000900029F5DC08E0029802995A460078C5
:103C4000491C0291179990476D1CBAF10001AAF125
:103C5000010AF1DC65E1000009280100303132334E
:103C600034353637383961626364656600000000B8
:103C700030313233343536373839414243444546A2
:103C80000000000000F058F90544761C3078002848
:103C90007FF4ECAD19B02846BDE8F08F620700D480
:103CA000062709F1070222F0070CFCE80223E1468F
:103CB00003F000485FEA080C02D00FF2702C0DE010
:103CC0005FEA045C02D50FF2682C07E05FEAC47C6F
:103CD00002D00FF2602C01E0AFF2700C4FF0FF3811
:103CE00023F00043CDF850C065280CD006DC4528F1
:103CF00009D046281DD047283DD13DE0662818D080
:103D000067287ED138E00021112F01DB112000E06F
:103D1000781CCDE9000106A90EA8FFF7DDFCDDE95E
:103D20000F010E9A03910021009207F1010A0491FC
:103D30004DE04FF000400097CDE9011006A90EA814
:103D4000FFF7CAFCDDE90F0203920E9B11990022D6
:103D5000DDF80CA00093049211B9791C00EB010A64
:103D6000B7EB0A0004D4C0F1FF3007F1010A049058
:103D7000AAEB0700019044E0012F00DA012700219F
:103D8000112F01DD112000E03846CDE9000106A920
:103D90000EA8FFF7A1FCDDE90F010E9A03910021A7
:103DA00004910092BA4621070CD40399514500DAD8
:103DB0008A46BAF1010F05DD009AAAF10101515CB2
:103DC000302908D0B84202DA10F1040F06DA0121D6
:103DD000CDE9011015E0AAF10101E9E7002805DCB1
:103DE000049901440491AAEB000102E0411C5145F1
:103DF00000DD8A460499401A401C01904FF00040B3
:103E00000290200704D40198504501DBCDF80480CE
:103E100000208DF84F0002980DF14F07B0F1004FD0
:103E200025D02B200E9002984FF0020800280CDAC3
:103E3000404202902D200E9007E00A210298FCF7E4
:103E400027FA3031029007F8011DB8F10001A8F1FE
:103E50000108F2DC02980028EFD1791E0E98087054
:103E6000307800F0200040F0450007F8020D12A85D
:103E7000C01B00F107081498007800B1012000EB86
:103E80000A01019801EBE07105984144401A401E77
:103E90000590E00306D45B462146179A059800F08A
:103EA0005DF805441498007818B15A461799904760
:103EB0006D1CE00324D55B462146179A059800F057
:103EC0004DF805441CE00498002807DBDDE90301F8
:103ED000884203DD0098405C179901E01799302073
:103EE0005A469047049805F10105401C049001983A
:103EF000401E019004D12E205A46179990476D1C00
:103F0000BAF10001AAF1010ADDDC05E017F8010BA6
:103F10005A46179990476D1CB8F10001A8F10108A5
:103F2000F4DC5B462146179A0598ABE62D000000AD
:103F30002B000000200000002DE9F0410446002580
:103F40001E461746880404D405E039462020B047B1
:103F50006D1C641EF9D52846BDE8F0812DE9F041BD
:103F6000044600251E469046C80301D5302700E0D0
:103F70002027880404D505E041463846B0476D1C2B
:103F8000641EF9D52846BDE8F081000013B50A2368
:103F9000012269460248FEF7AFFA00981CBD0000F6
:103FA0001003002088B0FDF73FFBFFF787F8FEF70E
:103FB000E9FDFEF727FFFEF757FFFEF7A1FFFEF72B
:103FC00075FDFEF7DFFEFEF7BDFEFEF7FBFEFEF71A
:103FD000D5FF7F4D002400BF04EB440005EBC0007B
:103FE000FEF7F9FC641C032CF6DB7AA0FFF744FB18
:103FF0006420FCF711FF7FA0FFF73EFB8A4C0122F3
:1040000051032046FDF712F888A0FFF735FB4FF467
:10401000FA7B5846FCF700FF8EA0FFF72DFB01222C
:1040200091032046FDF702F896A0FFF725FBC82074
:10403000FCF7F2FE9DA0FFF71FFB012211032046B3
:10404000FCF7F4FF3220FCF7E7FEA6A0FFF714FB15
:104050000122D1032046FCF7E9FF3220FCF7DCFE09
:10406000ADA0FFF709FBFEF7A9FFB1A0FFF704FB26
:1040700001224021B748FCF7D9FF6420FCF7CCFEB1
:10408000B5A0FFF7F9FA0821BF48FEF7EFF8BFA087
:10409000FFF7F2FAC4A0FFF7EFFACBA0FFF7ECFAB4
:1040A00001228021D148FCF7C1FF3220FCF7B4FE89
:1040B000CFA0FFF7E1FAB44C0F20216888630421F8
:1040C0002046FEF7D3F8D5A0FFF7D6FA0021204608
:1040D000FDF718FF2068C16841F00101C160D7A059
:1040E000FFF7CAFA042104F14800FDF70BFF04F1C1
:1040F00048000068C16841F00101C160D6A0FFF727
:10410000BBFA04F59C710822A1F1A800FCF736FD6A
:10411000D7A0FFF7B1FAAA460024554604EB4400A5
:1041200005EBC000FEF77AFC641C032CF6DB0024D0
:104130004FEA050A04EB44010AEBC109D9F814005F
:10414000FCF793F807468846D9F81000FCF78DF87D
:1041500005460E46D9F80C00FCF787F841EC100B29
:10416000601C0295CDE90360CDE90678009053EC20
:10417000102B611CC5A0FFF77FFA641C032CD9DB50
:10418000134D283D286A00EB80008200286900EB6F
:104190008000400000902B69296AC6A0FFF76CFAE6
:1041A000D04CA088009063882288E188CEA0FFF7D9
:1041B00063FAA089009063892289E189D4A0FFF77E
:1041C0005BFA5846FCF728FE686A401C6862A3E761
:1041D000280000205B5057525D20696E69743A20B8
:1041E000616C6C20454E2070696E73204C4F570DEA
:1041F0000A0000005B5057525D2073746570313ABD
:1042000020454E5F545053343330363020484947B0
:10421000482028504231333D31292031322D3E3261
:1042200034560D0A00000000000402405B50575253
:104230005D2077616974696E67203530306D732059
:10424000666F7220323456206275732E2E2E0D0A40
:10425000000000005B5057525D2073746570323A65
:1042600020454E5F3234544F313220484947482070
:1042700028504231343D31292032342D3E313256DE
:104280000D0A00005B5057525D2077616974696EBA
:1042900067203230306D7320666F72203132565F86
:1042A00046414E2E2E2E0D0A000000005B50575244
:1042B0005D2073746570333A204348415247455F2F
:1042C000454E20484947482028504231323D312947
:1042D00020626174746572792063686172676572C7
:1042E0000D0A00005B5057525D2073746570343ABC
:1042F0002050554D505F454E204849474820285092
:104300004231353D31292070756D70206F757470A4
:1043100075740D0A000000005B5057525D20706FED
:1043200077657220696E697420646F6E650D0A008E
:104330005B46414E5D2046414E5F5643435F4354CA
:10434000524C204849474820285043363D31290DDA
:104350000A000000000802405B46414E5D205057B5
:104360004D2073746172742035302525206F6E20C6
:10437000504338202854494D335F4348332C203272
:10438000306B487A290D0A00CC0000205B46414E74
:104390005D206F70656E2D6C6F6F702072756E6E24
:1043A000696E670D0A0000005B59534A5D2044495D
:1043B000523D64656661756C7420285042333D4CF3
:1043C0004F57290D0A0000005B59534A5D204252A5
:1043D000414B452072656C656173652028504437F8
:1043E0003D48494748290D0A00000000000C0240E2
:1043F0005B59534A5D2050574D2033302525206F9F
:104400006E20504235202854494D335F4348322CAA
:104410002032306B487A290D0A0000005B59534A5C
:104420005D20636F6D70726573736F722074657356
:10443000742072756E6E696E670D0A005B59534A7F
:104440005D2053435F434F554E54204943207374BE
:1044500061727465640D0A005B46414E5D20464200
:1044600020494320737461727465640D0A00000072
:104470005B4E54435D204144433120444D41207301
:104480007461727465640D0A000000007625642072
:104490003D20252E3366562C20692564203D20259D
:1044A0002E3366412C20702564203D20252E336656
:1044B000570D0A005B46414E5D20256C7520487AF9
:1044C0002020256C752052504D20205B59534A5DA9
:1044D00020256C7520487A2020256C752052504D7F
:1044E0000D0A0000040200205B4E54435D20322D73
:1044F000313D25346420322D323D25346420322D67
:10450000333D25346420322D343D2534640D0A00BA
:104510005B4E54435D20312D313D25346420312DD7
:10452000323D25346420312D333D25346420312D36
:10453000343D2534640D0A00700355042705C80076
:10454000C8008A0200000000010000000200000014
:104550000300000004000000050000000600000049
:10456000070000000B0200000B0200000B0200001D
:1045700064005000640050006400960000061016AD
:1045800000061016000000000000000001020304F5
:10459000060708090000000001020304BC450008EA
:1045A0000000002084000000B836000840460008E3
:1045B00084000020D4060000C83600080000000077
:1045C00000000000000000000000000000000000EB
:1045D00000000000000000000000000000000000DB
:1045E00000000000140200208800000217B7D13834
:1045F0000000000000000000000000006802002031
:104600008800550352499D3A000000000000000058
:1046100000000000BC0200208800550352499D3A6A
:104620000000000000000000000000000100000089
:1046300010000000000000000024F4000000000052
:040000050800018965
:00000001FF
